{
  "_format": "hh-sol-artifact-1",
  "contractName": "CCIPBridge",
  "sourceName": "contracts/CCIPBridge.sol",
  "abi": [
    {
      "inputs": [
        {
          "internalType": "address",
          "name": "_router",
          "type": "address"
        },
        {
          "internalType": "address",
          "name": "_link",
          "type": "address"
        }
      ],
      "stateMutability": "nonpayable",
      "type": "constructor"
    },
    {
      "anonymous": false,
      "inputs": [
        {
          "indexed": false,
          "internalType": "bytes32",
          "name": "messageId",
          "type": "bytes32"
        },
        {
          "indexed": false,
          "internalType": "uint64",
          "name": "destinationChainSelector",
          "type": "uint64"
        },
        {
          "indexed": false,
          "internalType": "address",
          "name": "receiver",
          "type": "address"
        },
        {
          "indexed": false,
          "internalType": "uint256",
          "name": "amount",
          "type": "uint256"
        }
      ],
      "name": "MessageSent",
      "type": "event"
    },
    {
      "inputs": [
        {
          "internalType": "uint64",
          "name": "_destinationChainSelector",
          "type": "uint64"
        },
        {
          "internalType": "bool",
          "name": "allowed",
          "type": "bool"
        }
      ],
      "name": "allowDestinationChain",
      "outputs": [],
      "stateMutability": "nonpayable",
      "type": "function"
    },
    {
      "inputs": [
        {
          "internalType": "uint64",
          "name": "",
          "type": "uint64"
        }
      ],
      "name": "allowedDestinationChains",
      "outputs": [
        {
          "internalType": "bool",
          "name": "",
          "type": "bool"
        }
      ],
      "stateMutability": "view",
      "type": "function"
    },
    {
      "inputs": [
        {
          "internalType": "uint64",
          "name": "_destinationChainSelector",
          "type": "uint64"
        },
        {
          "internalType": "address",
          "name": "_receiver",
          "type": "address"
        },
        {
          "internalType": "address",
          "name": "_token",
          "type": "address"
        },
        {
          "internalType": "uint256",
          "name": "_amount",
          "type": "uint256"
        }
      ],
      "name": "sendTokensPayLINK",
      "outputs": [
        {
          "internalType": "bytes32",
          "name": "messageId",
          "type": "bytes32"
        }
      ],
      "stateMutability": "nonpayable",
      "type": "function"
    }
  ],
  "bytecode": "0x60c03461008557601f61086738819003918201601f19168301916001600160401b0383118484101761008a57808492604094855283398101031261008557610052602061004b836100a0565b92016100a0565b6001600160a01b039182166080521660a0526040516107b290816100b582396080518161018c015260a0518161012a0152f35b600080fd5b634e487b7160e01b600052604160045260246000fd5b51906001600160a01b03821682036100855756fe60806040908082526004918236101561001757600080fd5b600091823560e01c908163aa6f7fb31461055b57508063b48859cb1461050d5763f2ed21b31461004657600080fd5b346105095760803660031901126105095761005f610599565b6001600160a01b0390602435828116908190036105055760443592808416809403610501576064359267ffffffffffffffff9788821695868952602099898b5260ff898b205416156104be578851946100b7866105b5565b600186528b8b5b81811061049d57505089516100d2816105b5565b838152888d8201526100e387610625565b526100ed86610625565b508b8a51968882890152818852610103886105b5565b8b5161010e816105e7565b62030d408091528c51928301528d8252610127826105b5565b827f000000000000000000000000000000000000000000000000000000000000000016978c519460a08601908682109082111761048a578d5284528b516101eb939291908f8f610176836105e7565b82528601528c85015260608401528660808401527f000000000000000000000000000000000000000000000000000000000000000016958a51938d856101be86838301610688565b03956101d2601f1997888101835282610603565b8d5180958192630437d33f60e51b83528b8b8401610740565b03818b5afa928315610480578e8b8f928f908497610443575b5060649051809481936323b872dd60e01b8352338d8401523060248401526044830152865af1801561041a578f908f938f8a958f9391610275968f93610426575b505180968195829463095ea7b360e01b9a8b8552840160209093929193604081019460018060a01b031681520152565b03925af1801561041a57918f93918f908f906102bd97956103fd575b50519182526001600160a01b038b16898301908152602081019490945290948593849291839160400190565b03925af180156103f357936102f861031297948e97948e946102ec986103c6575b508d519788918a8301610688565b03908101875286610603565b8a51634b9220c360e11b8152968795869485938401610740565b03925af19586156103bb578096610366575b5050916080917fc719305561d67ce0f33f6141666cb519400a008b914496fa679a571eaae119ca9385519287845288840152858301526060820152a151908152f35b909195508682813d83116103b4575b61037f8183610603565b810103126103b157505193817fc719305561d67ce0f33f6141666cb519400a008b914496fa679a571eaae119ca610324565b80fd5b503d610375565b8551903d90823e3d90fd5b6103e5908a3d8c116103ec575b6103dd8183610603565b810190610764565b50386102de565b503d6103d3565b8a513d8d823e3d90fd5b61041390873d89116103ec576103dd8183610603565b5038610291565b8e8e51903d90823e3d90fd5b61043c90873d89116103ec576103dd8183610603565b5038610245565b949596505050905081813d8311610479575b61045f8183610603565b81010312610475575191908c8e8b8e6064610204565b8c80fd5b503d610455565b8c513d8f823e3d90fd5b634e487b7160e01b8f526041885260248ffd5b8b516104a8816105b5565b8d81528d8382015282828a010152018c906100be565b885162461bcd60e51b81528084018c9052601d60248201527f44657374696e6174696f6e20636861696e206e6f7420616c6c6f7765640000006044820152606490fd5b8580fd5b8480fd5b5080fd5b5034610509578060031936011261050957610526610599565b90602435918215158093036105575767ffffffffffffffff1683528260205282209060ff8019835416911617905580f35b8380fd5b919050346105955760203660031901126105955760ff9060209367ffffffffffffffff610586610599565b16815280855220541615158152f35b8280fd5b6004359067ffffffffffffffff821682036105b057565b600080fd5b6040810190811067ffffffffffffffff8211176105d157604052565b634e487b7160e01b600052604160045260246000fd5b6020810190811067ffffffffffffffff8211176105d157604052565b90601f8019910116810190811067ffffffffffffffff8211176105d157604052565b8051156106325760200190565b634e487b7160e01b600052603260045260246000fd5b919082519283825260005b848110610674575050826000602080949584010152601f8019910116010190565b602081830181015184830182015201610653565b60208082526106a2835160a08385015260c0840190610648565b818401516106be601f1992604092848783030184880152610648565b8186015193838683030160608701528080865193848152019501926000905b83821061071757505050505060a09161070491606086015190858303016080860152610648565b926080600180841b039101511691015290565b845180516001600160a01b031688528301518784015295860195938201936001909101906106dd565b60409067ffffffffffffffff61076194931681528160208201520190610648565b90565b908160209103126105b0575180151581036105b0579056fea2646970667358221220cae854d05199f20fbc5c754e87d15944289c2b2c6dbd857f73c490e390f9069564736f6c63430008130033",
  "linkReferences": {},
  "deployedLinkReferences": {}
}