{
  "_format": "hh-sol-artifact-1",
  "contractName": "ChainlinkFunctions",
  "sourceName": "contracts/ChainlinkFunctions.sol",
  "abi": [
    {
      "inputs": [
        {
          "internalType": "address",
          "name": "router",
          "type": "address"
        }
      ],
      "stateMutability": "nonpayable",
      "type": "constructor"
    },
    {
      "inputs": [],
      "name": "EmptyArgs",
      "type": "error"
    },
    {
      "inputs": [],
      "name": "EmptySecrets",
      "type": "error"
    },
    {
      "inputs": [],
      "name": "EmptySource",
      "type": "error"
    },
    {
      "inputs": [],
      "name": "NoInlineSecrets",
      "type": "error"
    },
    {
      "inputs": [],
      "name": "OnlyRouterCanFulfill",
      "type": "error"
    },
    {
      "inputs": [
        {
          "internalType": "bytes32",
          "name": "requestId",
          "type": "bytes32"
        }
      ],
      "name": "UnexpectedRequestID",
      "type": "error"
    },
    {
      "anonymous": false,
      "inputs": [
        {
          "indexed": true,
          "internalType": "bytes32",
          "name": "id",
          "type": "bytes32"
        }
      ],
      "name": "RequestFulfilled",
      "type": "event"
    },
    {
      "anonymous": false,
      "inputs": [
        {
          "indexed": true,
          "internalType": "bytes32",
          "name": "id",
          "type": "bytes32"
        }
      ],
      "name": "RequestSent",
      "type": "event"
    },
    {
      "anonymous": false,
      "inputs": [
        {
          "indexed": true,
          "internalType": "bytes32",
          "name": "requestId",
          "type": "bytes32"
        },
        {
          "indexed": false,
          "internalType": "bytes",
          "name": "response",
          "type": "bytes"
        },
        {
          "indexed": false,
          "internalType": "bytes",
          "name": "err",
          "type": "bytes"
        }
      ],
      "name": "Response",
      "type": "event"
    },
    {
      "inputs": [
        {
          "internalType": "bytes32",
          "name": "requestId",
          "type": "bytes32"
        },
        {
          "internalType": "bytes",
          "name": "response",
          "type": "bytes"
        },
        {
          "internalType": "bytes",
          "name": "err",
          "type": "bytes"
        }
      ],
      "name": "handleOracleFulfillment",
      "outputs": [],
      "stateMutability": "nonpayable",
      "type": "function"
    },
    {
      "inputs": [],
      "name": "s_lastError",
      "outputs": [
        {
          "internalType": "bytes",
          "name": "",
          "type": "bytes"
        }
      ],
      "stateMutability": "view",
      "type": "function"
    },
    {
      "inputs": [],
      "name": "s_lastRequestId",
      "outputs": [
        {
          "internalType": "bytes32",
          "name": "",
          "type": "bytes32"
        }
      ],
      "stateMutability": "view",
      "type": "function"
    },
    {
      "inputs": [],
      "name": "s_lastResponse",
      "outputs": [
        {
          "internalType": "bytes",
          "name": "",
          "type": "bytes"
        }
      ],
      "stateMutability": "view",
      "type": "function"
    },
    {
      "inputs": [
        {
          "internalType": "string",
          "name": "source",
          "type": "string"
        },
        {
          "internalType": "bytes",
          "name": "encryptedSecretsUrls",
          "type": "bytes"
        },
        {
          "internalType": "uint8",
          "name": "donHostedSecretsSlotID",
          "type": "uint8"
        },
        {
          "internalType": "uint64",
          "name": "donHostedSecretsVersion",
          "type": "uint64"
        },
        {
          "internalType": "string[]",
          "name": "args",
          "type": "string[]"
        },
        {
          "internalType": "bytes[]",
          "name": "bytesArgs",
          "type": "bytes[]"
        },
        {
          "internalType": "uint64",
          "name": "subscriptionId",
          "type": "uint64"
        },
        {
          "internalType": "uint32",
          "name": "gasLimit",
          "type": "uint32"
        },
        {
          "internalType": "bytes32",
          "name": "donID",
          "type": "bytes32"
        }
      ],
      "name": "sendRequest",
      "outputs": [
        {
          "internalType": "bytes32",
          "name": "requestId",
          "type": "bytes32"
        }
      ],
      "stateMutability": "nonpayable",
      "type": "function"
    }
  ],
  "bytecode": "0x60a03461007257601f611ced38819003918201601f19168301916001600160401b038311848410176100775780849260209460405283398101031261007257516001600160a01b0381169081900361007257608052604051611c5f908161008e823960805181818160bb01526108740152f35b600080fd5b634e487b7160e01b600052604160045260246000fdfe608060405260048036101561001357600080fd5b6000803560e01c9182630ca761751461006c57505080633944ea3a146100675780634b0795a81461006257806352a81eeb1461005d5763b1e217491461005857600080fd5b610714565b610651565b6104c4565b6103e1565b34610287576060366003190112610287578035906001600160401b0390602435828111610283576100a090369083016102f8565b9060443583811161027f576100b890369083016102f8565b907f00000000000000000000000000000000000000000000000000000000000000006001600160a01b0316330361027057848654036102585750815192831161025357839160016101128561010d8354610353565b611a36565b602080601f87116001146101ad575094807f7873807bf6ddc50401cd3d29bbe0decee23fd4d68d273f4b5eb83cded4d2f172959689916101a2575b50600019600383901b1c191690821b1790555b61016982611b1b565b61017860405192839283611c04565b0390a27f85e1543bf2f84fe80c6badbce3648c8539ad1df4d2b3d822938ca0538be727e68280a280f35b90508301518961014d565b600160005290601f1987167fb10e2d527612073b26eecdfd717e6a320cf44b4afac2b0732d9fcbe2b7fa0cf6928a905b8282106102395750509187917f7873807bf6ddc50401cd3d29bbe0decee23fd4d68d273f4b5eb83cded4d2f1729798859410610220575b5050811b019055610160565b85015160001960f88460031b161c191690558980610214565b8387015185558a98509385019392830192908101906101dd565b61028b565b60405163d068bf5b60e01b8152908101859052602490fd5b60405163c6829f8360e01b8152fd5b8580fd5b8480fd5b5080fd5b634e487b7160e01b600052604160045260246000fd5b60e081019081106001600160401b0382111761025357604052565b604081019081106001600160401b0382111761025357604052565b90601f801991011681019081106001600160401b0382111761025357604052565b81601f8201121561034e578035906001600160401b038211610253576040519261032c601f8401601f1916602001856102d7565b8284526020838301011161034e57816000926020809301838601378301015290565b600080fd5b90600182811c92168015610383575b602083101461036d57565b634e487b7160e01b600052602260045260246000fd5b91607f1691610362565b919082519283825260005b8481106103b9575050826000602080949584010152601f8019910116010190565b602081830181015184830182015201610398565b9060206103de92818152019061038d565b90565b3461034e576000806003193601126104c1576040519080600180549161040683610353565b80865292828116908115610497575060011461043d575b6104398561042d818703826102d7565b604051918291826103cd565b0390f35b92508083527fb10e2d527612073b26eecdfd717e6a320cf44b4afac2b0732d9fcbe2b7fa0cf65b82841061047f57505050810160200161042d8261043961041d565b80546020858701810191909152909301928101610464565b8695506104399693506020925061042d94915060ff191682840152151560051b820101929361041d565b80fd5b3461034e576000806003193601126104c15760405190806002546104e781610353565b808552916001918083169081156104975750600114610510576104398561042d818703826102d7565b9250600283527f405787fa12a823e0f2b7631cc41b3ba8828b3321ca811111fa75cd3aa3bb5ace5b82841061055357505050810160200161042d8261043961041d565b80546020858701810191909152909301928101610538565b6044359060ff8216820361034e57565b606435906001600160401b038216820361034e57565b60c435906001600160401b038216820361034e57565b6001600160401b0381116102535760051b60200190565b9080601f8301121561034e578135906105d6826105a7565b926105e460405194856102d7565b828452602092838086019160051b8301019280841161034e57848301915b8483106106125750505050505090565b82356001600160401b03811161034e578691610633848480948901016102f8565b815201920191610602565b60e4359063ffffffff8216820361034e57565b3461034e5761012036600319011261034e576001600160401b0360043581811161034e576106839036906004016102f8565b9060243581811161034e5761069c9036906004016102f8565b916106a561056b565b926106ae61057b565b9360843584811161034e576106c79036906004016105be565b9460a43594851161034e57610439956106e76107049636906004016105be565b916106f0610591565b936106f961063e565b956101043597610732565b6040519081529081906020820190565b3461034e57600036600319011261034e576020600054604051908152f35b92916107ac94916107b1999897969361078460405196610751886102a1565b60008852600060208901526000604089015260608089015260606080890152606060a0890152606060c089015287610c61565b8151156107d85750610797915084610c8a565b80516107c8575b5080516107b8575b50610a8e565b61081c565b8060005590565b6107c29082610d51565b386107a6565b6107d29083610d32565b3861079e565b90506001600160401b0381166107f0575b5050610797565b6107fa9185610cb0565b38806107e9565b9081602091031261034e575190565b6040513d6000823e3d90fd5b92906020926001600160401b039263ffffffff61085b604051978896879663230e93b160e11b885216600487015260a0602487015260a486019061038d565b60016044860152921660648401526084830152038160007f00000000000000000000000000000000000000000000000000000000000000006001600160a01b03165af1908115610905576000916108d7575b50807f1131472297a800fee664d1d89cfa8f7676ff07189ecc53f80bbb5f4969099db8600080a290565b6108f8915060203d81116108fe575b6108f081836102d7565b810190610801565b386108ad565b503d6108e6565b610810565b60405190610917826102bc565b600c82526b31b7b232a637b1b0ba34b7b760a11b6020830152565b634e487b7160e01b600052602160045260246000fd5b6003111561095257565b610932565b60405190610964826102bc565b60088252676c616e677561676560c01b6020830152565b6001111561095257565b60405190610992826102bc565b6006825265736f7572636560d01b6020830152565b604051906109b4826102bc565b60048252636172677360e01b6020830152565b634e487b7160e01b600052601160045260246000fd5b60001981146109ec5760010190565b6109c7565b8051821015610a055760209160051b010190565b634e487b7160e01b600052603260045260246000fd5b60405190610a28826102bc565b600f82526e39b2b1b932ba39a637b1b0ba34b7b760891b6020830152565b60405190610a53826102bc565b60078252667365637265747360c81b6020830152565b60405190610a76826102bc565b600982526862797465734172677360b81b6020830152565b610a96610d78565b90610aa8610aa261090a565b83611666565b610ac58151610ab681610948565b610abf81610948565b83610e44565b610ad0610aa2610957565b610aea6040820151610ae18161097b565b610abf8161097b565b610af5610aa2610985565b610b03606082015183611666565b60a08101805151610c08575b506080810190815151610b88575b60c0915001805151610b30575b50515190565b91610b3c610aa2610a69565b610b45826116ea565b60005b83518051821015610b755790610b6b610b6482610b70946109f1565b51856115b1565b6109dd565b610b48565b50509150610b8281611776565b38610b2a565b602081018051610b9781610948565b610ba081610948565b15610bf65760c092610bd9610bf192610bc0610bba610a1b565b88611666565b51610bca81610948565b610bd381610948565b86610e44565b610bea610be4610a46565b86611666565b51846115b1565b610b1d565b60405163a80d31f760e01b8152600490fd5b92610c1a610c146109a7565b84611666565b610c23836116ea565b60005b84518051821015610c4e5790610b6b610c4282610c49946109f1565b5186611666565b610c26565b50509250610c5b82611776565b38610b0f565b815115610c78576000808252604082015260600152565b6040516322ce3edd60e01b8152600490fd5b815115610c9e576001602082015260800152565b60405163e889636f60e01b8152600490fd5b9190610d24608092610cf560ff610cc5610d78565b94610cee604051610cd5816102bc565b60068152651cdb1bdd125160d21b602082015287611666565b1684611803565b610d1e604051610d04816102bc565b60078152663b32b939b4b7b760c91b602082015284611666565b82611803565b600260208401525151910152565b815115610d3f5760a00152565b60405163fe936cb760e01b8152600490fd5b815115610d3f5760c00152565b60405190610d6b826102bc565b6000602083606081520152565b604051610d84816102bc565b610d8c610d5e565b8082526020820160008152610d9f610d5e565b50610100602083015260405180925260008252610120820191821061034e576000916040525290565b601f198101919082116109ec57565b90602082018092116109ec57565b919082018092116109ec57565b90610dfb610d5e565b50601f811680610e2a575b508060208301526040519081835260008252810160200190811061034e5760405290565b602003602081116109ec5781018091116109ec5738610e06565b90815191610e50610d5e565b5082515160018101908181116109ec576020850151811015610eab575b60c26020610ea19651928301015380518211610ea3575b505060405191602083015260208252610e9c826102bc565b6115b1565b565b523880610e84565b8160011b94828604600214831517156109ec57602081610edd610ea198610ed660c295519184610df2565b50826114f9565b5096505050610e6d565b908160011b91808304600214901517156109ec57565b610f05610d5e565b5080515160018101908181116109ec576020830151811015610f3e575b605b60208451928301015380518211610f3a57505090565b5290565b8160011b828104600214831517156109ec57610f6790610f6085519186610df2565b50846114f9565b50610f22565b610f75610d5e565b5080515160018101908181116109ec576020830151811015610faa575b605a60208451928301015380518211610f3a57505090565b8160011b828104600214831517156109ec57610fcc90610f6085519186610df2565b50610f92565b610fda610d5e565b5080515160018101908181116109ec57602083015181101561100f575b605960208451928301015380518211610f3a57505090565b8160011b828104600214831517156109ec5761103190610f6085519186610df2565b50610ff7565b61103f610d5e565b5080515160018101908181116109ec576020830151811015611074575b605860208451928301015380518211610f3a57505090565b8160011b828104600214831517156109ec5761109690610f6085519186610df2565b5061105c565b6110a4610d5e565b5080515160018101908181116109ec5760208301518110156110d9575b607b60208451928301015380518211610f3a57505090565b8160011b828104600214831517156109ec576110fb90610f6085519186610df2565b506110c1565b611109610d5e565b5080515160018101908181116109ec57602083015181101561113e575b607a60208451928301015380518211610f3a57505090565b8160011b828104600214831517156109ec5761116090610f6085519186610df2565b50611126565b61116e610d5e565b5080515160018101908181116109ec5760208301518110156111a3575b607960208451928301015380518211610f3a57505090565b8160011b828104600214831517156109ec576111c590610f6085519186610df2565b5061118b565b6111d3610d5e565b5080515160018101908181116109ec576020830151811015611208575b607860208451928301015380518211610f3a57505090565b8160011b828104600214831517156109ec5761122a90610f6085519186610df2565b506111f0565b611238610d5e565b5080515160018101908181116109ec57602083015181101561126d575b601b60208451928301015380518211610f3a57505090565b8160011b828104600214831517156109ec5761128f90610f6085519186610df2565b50611255565b61129d610d5e565b5080515160018101908181116109ec5760208301518110156112d2575b601a60208451928301015380518211610f3a57505090565b8160011b828104600214831517156109ec576112f490610f6085519186610df2565b506112ba565b611302610d5e565b5080515160018101908181116109ec576020830151811015611337575b601960208451928301015380518211610f3a57505090565b8160011b828104600214831517156109ec5761135990610f6085519186610df2565b5061131f565b611367610d5e565b5080515160018101908181116109ec57602083015181101561139c575b601860208451928301015380518211610f3a57505090565b8160011b828104600214831517156109ec576113be90610f6085519186610df2565b50611384565b906113cd610d5e565b5081515160018101918282116109ec576020840151821015611400575b60208451928301015380518211610f3a57505090565b8260011b838104600214841517156109ec576114299061142286519187610df2565b50856114f9565b506113ea565b9061143c82519183610df2565b50611445610d5e565b50805190611451610d5e565b5061145f81518311156115aa565b8251519261146d8385610de5565b9160209282848094015182116114e2575b51838151978201019682116114da575b505001915b818110156114b45760001991036101000a0190811990511690825116179052565b91926114cf6114c96114d59286518152610dd7565b94610dd7565b92610dc8565b611493565b52388061148e565b6114f46114ee83610ee7565b8261142f565b61147e565b90611502610d5e565b50805161150d610d5e565b5061151b82518211156115aa565b825151916115298284610de5565b6020918291828701518111611593575b86518381519782010196821161158b575b505001915b818110156115715760001991036101000a019081199051169082511617905290565b91926114cf6114c96115869286518152610dd7565b61154f565b52388061154a565b6115a561159f82610ee7565b8861142f565b611539565b1561034e57565b81516115e89291906001600160401b03811690601782116115eb576115e09150604060ff8451921617906113c4565b505b516114f9565b50565b5060ff81116116105761160a906116028351611037565b5082516119d0565b506115e2565b61ffff811161162f5761160a906116278351610fd2565b508251611969565b63ffffffff81116116505761160a906116488351610f6d565b508251611900565b61160a9061165e8351610efd565b508251611894565b81516115e89291906001600160401b0381169060178211611695576115e09150606060ff8451921617906113c4565b5060ff81116116ac5761160a9061160283516111cb565b61ffff81116116c35761160a906116278351611166565b63ffffffff81116116dc5761160a906116488351611101565b61160a9061165e835161109c565b8051906116f5610d5e565b5081515160018101908181116109ec576020840151811015611743575b609f602080955192830101538051821161173b575b505001805190600182018092116109ec5752565b523880611727565b8160011b93828504600214831517156109ec5760208161176c8297610ed6609f95519184610df2565b5095505050611712565b805190611781610d5e565b5081515160018101908181116109ec5760208401518110156117d0575b60ff60208095519283010153805182116117c8575b50500180516000198101919082116109ec5752565b5238806117b3565b8160011b93828504600214831517156109ec576020816117f98297610ed660ff95519184610df2565b509550505061179e565b906001600160401b03811660178111611826575060ff6115e892519116906113c4565b905060ff8111611845578161183e6115e8935161135f565b50516119d0565b61ffff8111611863578161185c6115e893516112fa565b5051611969565b63ffffffff8111611883578161187c6115e89351611295565b5051611900565b816118916115e89351611230565b50515b9061189d610d5e565b508151518060080191826008116109ec57602084015183116118df575b6008845192830101906001600160401b031982511617905280518211610f3a57505090565b8260011b838104600214841517156109ec576118fb908561142f565b6118ba565b90611909610d5e565b508151518060040191826004116109ec5760208401518311611948575b60048451928301019063ffffffff1982511617905280518211610f3a57505090565b8260011b838104600214841517156109ec57611964908561142f565b611926565b90611972610d5e565b508151518060020191826002116109ec57602084015183116119af575b60028451928301019061ffff1982511617905280518211610f3a57505090565b8260011b838104600214841517156109ec576119cb908561142f565b61198f565b906119d9610d5e565b508151518060010191826001116109ec5760208401518311611a15575b60018451928301019060ff1982511617905280518211610f3a57505090565b8260011b838104600214841517156109ec57611a31908561142f565b6119f6565b90601f8211611a43575050565b6001916000908382527fb10e2d527612073b26eecdfd717e6a320cf44b4afac2b0732d9fcbe2b7fa0cf6906020601f850160051c83019410611aa0575b601f0160051c01915b828110611a965750505050565b8181558301611a89565b9092508290611a80565b601f8111611ab6575050565b600090600282527f405787fa12a823e0f2b7631cc41b3ba8828b3321ca811111fa75cd3aa3bb5ace906020601f850160051c83019410611b11575b601f0160051c01915b828110611b0657505050565b818155600101611afa565b9092508290611af1565b9081516001600160401b03811161025357611b4081611b3b600254610353565b611aaa565b602080601f8311600114611b7c5750819293600092611b71575b50508160011b916000199060031b1c191617600255565b015190503880611b5a565b90601f19831694611baf60026000527f405787fa12a823e0f2b7631cc41b3ba8828b3321ca811111fa75cd3aa3bb5ace90565b926000905b878210611bec575050836001959610611bd3575b505050811b01600255565b015160001960f88460031b161c19169055388080611bc8565b80600185968294968601518155019501930190611bb4565b9091611c1b6103de9360408452604084019061038d565b91602081840391015261038d56fea26469706673582212201729cc2d766e3d713f33322460dbeb1dacf40885ec5c252a05ee15060bce3c7c64736f6c63430008130033",
  "linkReferences": {},
  "deployedLinkReferences": {}
}