{
  "_format": "hh-sol-artifact-1",
  "contractName": "MarketFactory",
  "sourceName": "contracts/MarketFactory.sol",
  "abi": [
    {
      "inputs": [
        {
          "internalType": "address",
          "name": "_bettingToken",
          "type": "address"
        },
        {
          "internalType": "address",
          "name": "_linkToken",
          "type": "address"
        },
        {
          "internalType": "address",
          "name": "_vrfCoordinator",
          "type": "address"
        },
        {
          "internalType": "bytes32",
          "name": "_keyHash",
          "type": "bytes32"
        },
        {
          "internalType": "uint256",
          "name": "_subscriptionId",
          "type": "uint256"
        },
        {
          "internalType": "address",
          "name": "_automationRegistrar",
          "type": "address"
        }
      ],
      "stateMutability": "nonpayable",
      "type": "constructor"
    },
    {
      "anonymous": false,
      "inputs": [
        {
          "indexed": true,
          "internalType": "address",
          "name": "market",
          "type": "address"
        },
        {
          "indexed": true,
          "internalType": "uint256",
          "name": "upkeepId",
          "type": "uint256"
        }
      ],
      "name": "AutomationRegistered",
      "type": "event"
    },
    {
      "anonymous": false,
      "inputs": [
        {
          "indexed": true,
          "internalType": "address",
          "name": "token",
          "type": "address"
        },
        {
          "indexed": false,
          "internalType": "uint256",
          "name": "amount",
          "type": "uint256"
        }
      ],
      "name": "FeesCollected",
      "type": "event"
    },
    {
      "anonymous": false,
      "inputs": [
        {
          "indexed": true,
          "internalType": "address",
          "name": "token",
          "type": "address"
        },
        {
          "indexed": false,
          "internalType": "uint256",
          "name": "amount",
          "type": "uint256"
        }
      ],
      "name": "FundsDeposited",
      "type": "event"
    },
    {
      "anonymous": false,
      "inputs": [
        {
          "indexed": true,
          "internalType": "address",
          "name": "token",
          "type": "address"
        },
        {
          "indexed": false,
          "internalType": "uint256",
          "name": "amount",
          "type": "uint256"
        }
      ],
      "name": "FundsWithdrawn",
      "type": "event"
    },
    {
      "anonymous": false,
      "inputs": [
        {
          "indexed": true,
          "internalType": "address",
          "name": "market",
          "type": "address"
        },
        {
          "indexed": true,
          "internalType": "address",
          "name": "creator",
          "type": "address"
        },
        {
          "indexed": false,
          "internalType": "string",
          "name": "assetName",
          "type": "string"
        },
        {
          "indexed": false,
          "internalType": "string",
          "name": "baseAsset",
          "type": "string"
        },
        {
          "indexed": false,
          "internalType": "uint256",
          "name": "targetPrice",
          "type": "uint256"
        },
        {
          "indexed": false,
          "internalType": "uint256",
          "name": "resolutionTime",
          "type": "uint256"
        },
        {
          "indexed": false,
          "internalType": "address",
          "name": "priceFeed",
          "type": "address"
        }
      ],
      "name": "MarketCreated",
      "type": "event"
    },
    {
      "anonymous": false,
      "inputs": [
        {
          "indexed": true,
          "internalType": "address",
          "name": "market",
          "type": "address"
        },
        {
          "indexed": false,
          "internalType": "uint256",
          "name": "ethAmount",
          "type": "uint256"
        },
        {
          "indexed": false,
          "internalType": "uint256",
          "name": "linkAmount",
          "type": "uint256"
        }
      ],
      "name": "MarketFunded",
      "type": "event"
    },
    {
      "anonymous": false,
      "inputs": [
        {
          "indexed": true,
          "internalType": "address",
          "name": "previousOwner",
          "type": "address"
        },
        {
          "indexed": true,
          "internalType": "address",
          "name": "newOwner",
          "type": "address"
        }
      ],
      "name": "OwnershipTransferred",
      "type": "event"
    },
    {
      "anonymous": false,
      "inputs": [
        {
          "indexed": false,
          "internalType": "uint16",
          "name": "oldFee",
          "type": "uint16"
        },
        {
          "indexed": false,
          "internalType": "uint16",
          "name": "newFee",
          "type": "uint16"
        }
      ],
      "name": "TreasuryFeeUpdated",
      "type": "event"
    },
    {
      "inputs": [],
      "name": "AUTOMATION_FUNDING",
      "outputs": [
        {
          "internalType": "uint256",
          "name": "",
          "type": "uint256"
        }
      ],
      "stateMutability": "view",
      "type": "function"
    },
    {
      "inputs": [],
      "name": "AUTOMATION_GAS_LIMIT",
      "outputs": [
        {
          "internalType": "uint256",
          "name": "",
          "type": "uint256"
        }
      ],
      "stateMutability": "view",
      "type": "function"
    },
    {
      "inputs": [],
      "name": "MAX_TREASURY_FEE",
      "outputs": [
        {
          "internalType": "uint16",
          "name": "",
          "type": "uint16"
        }
      ],
      "stateMutability": "view",
      "type": "function"
    },
    {
      "inputs": [],
      "name": "MIN_TREASURY_FEE",
      "outputs": [
        {
          "internalType": "uint16",
          "name": "",
          "type": "uint16"
        }
      ],
      "stateMutability": "view",
      "type": "function"
    },
    {
      "inputs": [],
      "name": "automationRegistrar",
      "outputs": [
        {
          "internalType": "address",
          "name": "",
          "type": "address"
        }
      ],
      "stateMutability": "view",
      "type": "function"
    },
    {
      "inputs": [],
      "name": "bettingToken",
      "outputs": [
        {
          "internalType": "address",
          "name": "",
          "type": "address"
        }
      ],
      "stateMutability": "view",
      "type": "function"
    },
    {
      "inputs": [
        {
          "internalType": "uint256",
          "name": "amount",
          "type": "uint256"
        }
      ],
      "name": "collectFees",
      "outputs": [],
      "stateMutability": "nonpayable",
      "type": "function"
    },
    {
      "inputs": [],
      "name": "collectedFees",
      "outputs": [
        {
          "internalType": "uint256",
          "name": "",
          "type": "uint256"
        }
      ],
      "stateMutability": "view",
      "type": "function"
    },
    {
      "inputs": [
        {
          "internalType": "address",
          "name": "_priceFeed",
          "type": "address"
        },
        {
          "internalType": "string",
          "name": "_assetName",
          "type": "string"
        },
        {
          "internalType": "string",
          "name": "_baseAsset",
          "type": "string"
        },
        {
          "internalType": "uint256",
          "name": "_targetPrice",
          "type": "uint256"
        },
        {
          "internalType": "uint256",
          "name": "_resolutionTime",
          "type": "uint256"
        }
      ],
      "name": "createMarket",
      "outputs": [
        {
          "internalType": "address",
          "name": "",
          "type": "address"
        }
      ],
      "stateMutability": "nonpayable",
      "type": "function"
    },
    {
      "inputs": [],
      "name": "depositETH",
      "outputs": [],
      "stateMutability": "payable",
      "type": "function"
    },
    {
      "inputs": [
        {
          "internalType": "uint256",
          "name": "amount",
          "type": "uint256"
        }
      ],
      "name": "depositLINK",
      "outputs": [],
      "stateMutability": "nonpayable",
      "type": "function"
    },
    {
      "inputs": [],
      "name": "ethBalance",
      "outputs": [
        {
          "internalType": "uint256",
          "name": "",
          "type": "uint256"
        }
      ],
      "stateMutability": "view",
      "type": "function"
    },
    {
      "inputs": [],
      "name": "getAllMarkets",
      "outputs": [
        {
          "internalType": "address[]",
          "name": "",
          "type": "address[]"
        }
      ],
      "stateMutability": "view",
      "type": "function"
    },
    {
      "inputs": [],
      "name": "getBalances",
      "outputs": [
        {
          "internalType": "uint256",
          "name": "_ethBalance",
          "type": "uint256"
        },
        {
          "internalType": "uint256",
          "name": "_linkBalance",
          "type": "uint256"
        },
        {
          "internalType": "uint256",
          "name": "_collectedFees",
          "type": "uint256"
        }
      ],
      "stateMutability": "view",
      "type": "function"
    },
    {
      "inputs": [
        {
          "internalType": "uint256",
          "name": "start",
          "type": "uint256"
        },
        {
          "internalType": "uint256",
          "name": "end",
          "type": "uint256"
        }
      ],
      "name": "getMarketsByRange",
      "outputs": [
        {
          "internalType": "address[]",
          "name": "",
          "type": "address[]"
        }
      ],
      "stateMutability": "view",
      "type": "function"
    },
    {
      "inputs": [],
      "name": "getMarketsCount",
      "outputs": [
        {
          "internalType": "uint256",
          "name": "",
          "type": "uint256"
        }
      ],
      "stateMutability": "view",
      "type": "function"
    },
    {
      "inputs": [],
      "name": "getTreasuryFee",
      "outputs": [
        {
          "internalType": "uint256",
          "name": "",
          "type": "uint256"
        }
      ],
      "stateMutability": "view",
      "type": "function"
    },
    {
      "inputs": [],
      "name": "getTreasuryFeePercent",
      "outputs": [
        {
          "internalType": "string",
          "name": "",
          "type": "string"
        }
      ],
      "stateMutability": "view",
      "type": "function"
    },
    {
      "inputs": [
        {
          "internalType": "address",
          "name": "market",
          "type": "address"
        }
      ],
      "name": "isMarketValid",
      "outputs": [
        {
          "internalType": "bool",
          "name": "",
          "type": "bool"
        }
      ],
      "stateMutability": "view",
      "type": "function"
    },
    {
      "inputs": [],
      "name": "keyHash",
      "outputs": [
        {
          "internalType": "bytes32",
          "name": "",
          "type": "bytes32"
        }
      ],
      "stateMutability": "view",
      "type": "function"
    },
    {
      "inputs": [],
      "name": "linkBalance",
      "outputs": [
        {
          "internalType": "uint256",
          "name": "",
          "type": "uint256"
        }
      ],
      "stateMutability": "view",
      "type": "function"
    },
    {
      "inputs": [],
      "name": "linkToken",
      "outputs": [
        {
          "internalType": "address",
          "name": "",
          "type": "address"
        }
      ],
      "stateMutability": "view",
      "type": "function"
    },
    {
      "inputs": [
        {
          "internalType": "uint256",
          "name": "",
          "type": "uint256"
        }
      ],
      "name": "markets",
      "outputs": [
        {
          "internalType": "address",
          "name": "",
          "type": "address"
        }
      ],
      "stateMutability": "view",
      "type": "function"
    },
    {
      "inputs": [],
      "name": "owner",
      "outputs": [
        {
          "internalType": "address",
          "name": "",
          "type": "address"
        }
      ],
      "stateMutability": "view",
      "type": "function"
    },
    {
      "inputs": [],
      "name": "renounceOwnership",
      "outputs": [],
      "stateMutability": "nonpayable",
      "type": "function"
    },
    {
      "inputs": [
        {
          "internalType": "address payable",
          "name": "marketAddress",
          "type": "address"
        }
      ],
      "name": "resolveMarket",
      "outputs": [],
      "stateMutability": "nonpayable",
      "type": "function"
    },
    {
      "inputs": [
        {
          "internalType": "address payable",
          "name": "marketAddress",
          "type": "address"
        }
      ],
      "name": "selectRandomWinnerForMarket",
      "outputs": [],
      "stateMutability": "nonpayable",
      "type": "function"
    },
    {
      "inputs": [
        {
          "internalType": "uint16",
          "name": "_treasuryFee",
          "type": "uint16"
        }
      ],
      "name": "setTreasuryFee",
      "outputs": [],
      "stateMutability": "nonpayable",
      "type": "function"
    },
    {
      "inputs": [],
      "name": "subscriptionId",
      "outputs": [
        {
          "internalType": "uint256",
          "name": "",
          "type": "uint256"
        }
      ],
      "stateMutability": "view",
      "type": "function"
    },
    {
      "inputs": [
        {
          "internalType": "address",
          "name": "newOwner",
          "type": "address"
        }
      ],
      "name": "transferOwnership",
      "outputs": [],
      "stateMutability": "nonpayable",
      "type": "function"
    },
    {
      "inputs": [],
      "name": "treasuryFee",
      "outputs": [
        {
          "internalType": "uint16",
          "name": "",
          "type": "uint16"
        }
      ],
      "stateMutability": "view",
      "type": "function"
    },
    {
      "inputs": [],
      "name": "vrfCoordinator",
      "outputs": [
        {
          "internalType": "address",
          "name": "",
          "type": "address"
        }
      ],
      "stateMutability": "view",
      "type": "function"
    },
    {
      "inputs": [
        {
          "internalType": "uint256",
          "name": "amount",
          "type": "uint256"
        }
      ],
      "name": "withdrawETH",
      "outputs": [],
      "stateMutability": "nonpayable",
      "type": "function"
    },
    {
      "inputs": [
        {
          "internalType": "uint256",
          "name": "amount",
          "type": "uint256"
        }
      ],
      "name": "withdrawFees",
      "outputs": [],
      "stateMutability": "nonpayable",
      "type": "function"
    },
    {
      "inputs": [
        {
          "internalType": "uint256",
          "name": "amount",
          "type": "uint256"
        }
      ],
      "name": "withdrawLINK",
      "outputs": [],
      "stateMutability": "nonpayable",
      "type": "function"
    },
    {
      "stateMutability": "payable",
      "type": "receive"
    }
  ],
  "bytecode": "0x610140346200018857601f6200559538819003918201601f19168301916001600160401b038311848410176200018d5780849260c09460405283398101031262000188576200004e81620001a3565b6200005c60208301620001a3565b6200006a60408401620001a3565b6060840151906200008360a060808701519601620001a3565b60008054336001600160a01b0319821681178355604051979396939290916001600160a01b0316907f8be0079c531659141344cd1fd0a4f28419497f9722a3daafe3b4186f6b6457e09080a360c861ffff19600254161760025560805260a05260c05260e0526101009283526101209081526153dc9283620001b9843960805183818161067101528181610c5101528181610f3f0152611136015260a0518381816105300152818161099101528181610d1601526113cd015260c051838181610917015261116f015260e051838181610bbd01526111bc0152518281816111960152611c150152518181816111f60152818161138a015281816114f20152611bcc0152f35b600080fd5b634e487b7160e01b600052604160045260246000fd5b51906001600160a01b0382168203620001885756fe608080604052600436101562000030575b5036156200001d57600080fd5b6200002b3460035462001e91565b600355005b600090813560e01c908162113e081462001c385750806309c1ba2e1462001bfb5780630c3818731462001bb457806317bd307e1462001b965780631c8c23891462001b6257806327fa35c31462001b4257806329070c6d146200047757806330a2c0b01462001b2257806342d226c91462000f6e57806343425e881462000f2757806346b647c11462000eb45780634752ff111462000d655780634e6630b01462000d4557806357970e931462000cfe5780635d14a8021462000cc85780635e318e071462000be057806361728f391462000ba3578063715018a61462000b455780637859f4101462000ab55780638da5cb5b1462000a8c5780639003adfe1462000a6c578063a2a5a14c1462000946578063a3e56fa814620008ff578063a652db49146200082d578063b0772d0b1462000797578063b1283e77146200074e578063b17acdcd1462000629578063bb84e74f14620004bb578063c26ecefa146200049b578063cc32d1761462000477578063e979be8c1462000452578063f14210a6146200035c578063f2b3c809146200033d578063f2fde38b14620002705763f6326fb3036200001057806003193601126200026d57620001f262001e38565b34156200023857620002073460035462001e91565b600355807f543ba50a5eec5e6178218e364b1d0f396157b3c8fa278522c2cb7fd99407d4746020604051348152a280f35b60405162461bcd60e51b815260206004820152600d60248201526c09aeae6e840e6cadcc8408aa89609b1b6044820152606490fd5b80fd5b50346200026d5760203660031901126200026d576200028e62001c67565b6200029862001e38565b6001600160a01b03908116908115620002e957600054826001600160601b0360a01b821617600055167f8be0079c531659141344cd1fd0a4f28419497f9722a3daafe3b4186f6b6457e0600080a380f35b60405162461bcd60e51b815260206004820152602660248201527f4f776e61626c653a206e6577206f776e657220697320746865207a65726f206160448201526564647265737360d01b6064820152608490fd5b50346200026d57806003193601126200026d5760206040516103e88152f35b50346200026d5760203660031901126200026d576004356200037d62001e38565b600354908181116200040d5782808080848196620003aa82801592620003a4841562001f5e565b62001ee7565b60035582546001600160a01b031690839062000403575bf115620003f65760207feaff4b37086828766ad3268786972c0cd24259d4c87a80f9d3963a3c3d999b0d91604051908152a280f35b50604051903d90823e3d90fd5b506108fc620003c1565b60405162461bcd60e51b815260206004820152601860248201527f496e73756666696369656e74204554482062616c616e636500000000000000006044820152606490fd5b50346200026d57806003193601126200026d57602060405167016345785d8a00008152f35b50346200026d57806003193601126200026d57602061ffff60025416604051908152f35b50346200026d57806003193601126200026d576020600454604051908152f35b50346200026d57602080600319360112620006255760043590620004de62001e38565b600454808311620005e0579062000501836200056093620003a482151562001f5e565b6004908155845460405163a9059cbb60e01b81526001600160a01b0391821692810192909252602482018590527f0000000000000000000000000000000000000000000000000000000000000000169390928290849081906044820190565b038188885af1928315620005d5577feaff4b37086828766ad3268786972c0cd24259d4c87a80f9d3963a3c3d999b0d93620005a1575b50604051908152a280f35b620005c590833d8511620005cd575b620005bc818362001ccb565b81019062001eb5565b503862000596565b503d620005b0565b6040513d87823e3d90fd5b60405162461bcd60e51b815260048101839052601960248201527f496e73756666696369656e74204c494e4b2062616c616e6365000000000000006044820152606490fd5b5080fd5b50346200026d5760203660031901126200026d576004356200064b3362001f05565b15620006fd578015620006c357620006668160055462001e91565b6005556040519081527f00000000000000000000000000000000000000000000000000000000000000006001600160a01b0316907f9dc46f23cfb5ddcad0ae7ea2be38d47fec07bb9382ec7e564efc69e036dd66ce90602090a280f35b60405162461bcd60e51b8152602060048201526012602482015271139bc81999595cc81d1bc818dbdb1b1958dd60721b6044820152606490fd5b60405162461bcd60e51b815260206004820152602360248201527f4f6e6c792076616c6964206d61726b6574732063616e20636f6c6c656374206660448201526265657360e81b6064820152608490fd5b50346200026d5760203660031901126200026d57600435906001548210156200026d5760206200077e8362001dea565b905460405160039290921b1c6001600160a01b03168152f35b50346200026d57806003193601126200026d57604051600180548083528184526020808401947fb10e2d527612073b26eecdfd717e6a320cf44b4afac2b0732d9fcbe2b7fa0cf69392915b8282106200080e576200080a86620007fd818a038262001ccb565b6040519182918262001d58565b0390f35b84546001600160a01b03168752958601959383019390830190620007e2565b50346200026d5760203660031901126200026d5760043561ffff90818116809103620008fb576200085d62001e38565b603281101580620008ee575b15620008b2577fda769d0feabc49176d689ab2bc6927169c862a7731247bfa573135379b334d0491604091600254918161ffff198416176002558351921682526020820152a180f35b60405162461bcd60e51b8152602060048201526014602482015273496e76616c69642074726561737572792066656560601b6044820152606490fd5b506103e881111562000869565b8280fd5b50346200026d57806003193601126200026d576040517f00000000000000000000000000000000000000000000000000000000000000006001600160a01b03168152602090f35b50346200026d5760208060031936011262000625576004356200096862001e38565b801562000a33576040516323b872dd60e01b8152336004820152306024820152604481018290527f00000000000000000000000000000000000000000000000000000000000000006001600160a01b0316929091818360648188885af1928315620005d5577f543ba50a5eec5e6178218e364b1d0f396157b3c8fa278522c2cb7fd99407d4749362000a11575b5062000a048160045462001e91565b600455604051908152a280f35b62000a2b90833d8511620005cd57620005bc818362001ccb565b5038620009f5565b60405162461bcd60e51b81526004810183905260116024820152704d757374206465706f736974204c494e4b60781b6044820152606490fd5b50346200026d57806003193601126200026d576020600554604051908152f35b50346200026d57806003193601126200026d57546040516001600160a01b039091168152602090f35b50346200026d5760203660031901126200026d57806004356001600160a01b0381169081900362000b425762000af562000aef8262001f05565b62001fab565b803b1562000b4257818091600460405180948193632b9b55b360e01b83525af1801562000b375762000b245750f35b62000b2f9062001c83565b6200026d5780f35b6040513d84823e3d90fd5b50fd5b50346200026d57806003193601126200026d5762000b6262001e38565b600080546001600160a01b0319811682556001600160a01b03167f8be0079c531659141344cd1fd0a4f28419497f9722a3daafe3b4186f6b6457e08280a380f35b50346200026d57806003193601126200026d5760206040517f00000000000000000000000000000000000000000000000000000000000000008152f35b50346200026d5760208060031936011262000625576004359062000c0362001e38565b60055480831162000c83579062000c26836200056093620003a482151562001f5e565b600555835460405163a9059cbb60e01b81526001600160a01b039182166004820152602481018590527f00000000000000000000000000000000000000000000000000000000000000009091169390928290849081906044820190565b60405162461bcd60e51b815260048101839052601b60248201527f496e73756666696369656e74206665657320636f6c6c656374656400000000006044820152606490fd5b50346200026d57806003193601126200026d576200080a62000ce962002003565b60405191829160208352602083019062001dc3565b50346200026d57806003193601126200026d576040517f00000000000000000000000000000000000000000000000000000000000000006001600160a01b03168152602090f35b50346200026d57806003193601126200026d576020600354604051908152f35b50346200026d5760403660031901126200026d57600435602491823590818311158062000ea8575b1562000e745762000d9f838362001ee7565b926001840180941162000e615762000db784620021dc565b9362000dc7604051958662001ccb565b80855262000dd8601f1991620021dc565b01906020913683870137805b8481111562000dfd57604051806200080a888262001d58565b62000e088162001dea565b90549062000e17848462001ee7565b91885183101562000e4e5760039190911b1c6001600160a01b031660059190911b870184015262000e489062001ef5565b62000de4565b634e487b7160e01b875260326004528987fd5b634e487b7160e01b825260116004528482fd5b60405162461bcd60e51b815260206004820152600d818601526c496e76616c69642072616e676560981b6044820152606490fd5b50600154821062000d8d565b50346200026d5760203660031901126200026d57806004356001600160a01b0381169081900362000b425762000ee962001e38565b62000ef862000aef8262001f05565b803b1562000b42578180916004604051809481936310660b1160e01b83525af1801562000b375762000b245750f35b50346200026d57806003193601126200026d576040517f00000000000000000000000000000000000000000000000000000000000000006001600160a01b03168152602090f35b50346200026d5760a03660031901126200026d5762000f8c62001c67565b9060243567ffffffffffffffff8111620006255762000fb090369060040162001d0b565b9160443567ffffffffffffffff8111620008fb5762000fd490369060040162001d0b565b42608435111562001acf576001600160a01b0382161562001a955783511562001a5a5780511562001a1f5760643515620019ce57604051633fabe5a360e21b815260a0816004816001600160a01b0387165afa9081859186936200196a575b506200108e5760405162461bcd60e51b815260206004820152602760248201527f50726963652066656564206973206e6f742061636365737369626c65206f72206044820152661a5b9d985b1a5960ca1b6064820152608490fd5b84121562001930578015620018f257620010ac610e10914262001ee7565b11620018b65761ffff6002541660405190816131b181011067ffffffffffffffff6131b184011117620017f05781906131b1620021f683396101406131b18301526200111c620011056101406131b18501018962001dc3565b6131b18401810360206131b1860101528562001dc3565b6064356131b18401604081019190915260843560608201527f00000000000000000000000000000000000000000000000000000000000000006001600160a01b03908116608083015287811660a08301527f00000000000000000000000000000000000000000000000000000000000000001660c08201527f000000000000000000000000000000000000000000000000000000000000000060e08201527f00000000000000000000000000000000000000000000000000000000000000006101008201526101200191909152039084f08015620018ab577f00000000000000000000000000000000000000000000000000000000000000006001600160a01b0316156200185a5767016345785d8a00006004541062001804576040519081606081011067ffffffffffffffff606084011117620017f05760608201604052602882526040366020840137845b601481106200170c5750620012be603160405180947050726564696374696f6e4d61726b65742d60781b6020830152620012ad815180926020868601910162001d9e565b810103601181018552018362001ccb565b604051918261014081011067ffffffffffffffff61014085011117620016f85761014083016040528252604051620012f68162001cae565b858152602083015260018060a01b0316938460408301526207a12060608301523060808301528060a0830152604051620013308162001cae565b81815260c0830152604051620013468162001cae565b81815260e08301526040516200135c8162001cae565b81815261010083015267016345785d8a000061012083015260405163095ea7b360e01b815260018060a01b037f000000000000000000000000000000000000000000000000000000000000000016600482015267016345785d8a000060248201526020816044818560018060a01b037f0000000000000000000000000000000000000000000000000000000000000000165af1801562000b3757620016d4575b506020604051808094633f678e1160e01b82528360048301526001600160601b03610120620014e36200143e8451610140602488015261016487019062001dc3565b620014cb620014b5620014638a8801519360231994858b83030160448c015262001dc3565b60408801516001600160a01b0390811660648b0152606089015163ffffffff1660848b015260808901511660a48a015260a088015160ff1660c48a015260c0880151898203850160e48b015262001dc3565b60e087015183898303016101048a015262001dc3565b90610100860151908783030161012488015262001dc3565b920151166101448301520381847f00000000000000000000000000000000000000000000000000000000000000006001600160a01b03165af1918215620003f65781926200169a575b5060045467016345785d89ffff1981019081116200168657600455843b156200026d576040516323aa307d60e11b8152600481018390528181602481838a5af1801562000b375762001674575b5090847fb26108c1ad0439f6307bd10c7221723434b74674577900b976e458408b15502a8380a36001549068010000000000000000821015620016605750602094620016318593620015f38460017f713e53071fdca8cff37e12362baf044728d7f9660d11dd65a06ba5e688af553a960160015562001dea565b81549060031b9087821b9160018060a01b03901b1916179055620016236040519360a0855260a085019062001dc3565b908382038985015262001dc3565b606435604083015260843560608301526001600160a01b039094166080820152339381900390a3604051908152f35b634e487b7160e01b81526041600452602490fd5b6200167f9062001c83565b3862001579565b634e487b7160e01b82526011600452602482fd5b9091506020813d602011620016cb575b81620016b96020938362001ccb565b8101031262000625575190386200152c565b3d9150620016aa565b620016f09060203d602011620005cd57620005bc818362001ccb565b5038620013fc565b634e487b7160e01b86526041600452602486fd5b6001600160601b03198260601b16811a60ff8160041c16601080821015620017dc57600184811b9385850460021486151715620017c857600f906f181899199a1a9b1b9c1cb0b131b232b360811b80951a62001769878b62001ff1565b531691821015620017b4578301809311620017a0576200179a93929162001793911a918662001ff1565b5362001ef5565b62001269565b634e487b7160e01b89526011600452602489fd5b634e487b7160e01b8a52603260045260248afd5b634e487b7160e01b8b52601160045260248bfd5b634e487b7160e01b89526032600452602489fd5b634e487b7160e01b85526041600452602485fd5b60405162461bcd60e51b815260206004820152602860248201527f496e73756666696369656e74204c494e4b2062616c616e636520666f722061756044820152673a37b6b0ba34b7b760c11b6064820152608490fd5b60405162461bcd60e51b815260206004820152602360248201527f4175746f6d6174696f6e20726567697374726172206e6f7420636f6e666967756044820152621c995960ea1b6064820152608490fd5b6040513d85823e3d90fd5b60405162461bcd60e51b81526020600482015260146024820152735072696365206461746120746f6f207374616c6560601b6044820152606490fd5b60405162461bcd60e51b8152602060048201526016602482015275141c9a58d94819185d18481b9bdd081d5c19185d195960521b6044820152606490fd5b60405162461bcd60e51b8152602060048201526012602482015271496e76616c6964207072696365206461746160701b6044820152606490fd5b9150915060a0813d60a011620019c5575b816200198a60a0938362001ccb565b81010312620019c1576200199e8162001ecf565b506020810151620019b760806060840151930162001ecf565b5090913862001033565b8480fd5b3d91506200197b565b60405162461bcd60e51b815260206004820152602360248201527f546172676574207072696365206d75737420626520677265617465722074686160448201526206e20360ec1b6064820152608490fd5b60405162461bcd60e51b815260206004820152601360248201527210985cd948185cdcd95d081c995c5d5a5c9959606a1b6044820152606490fd5b60405162461bcd60e51b8152602060048201526013602482015272105cdcd95d081b985b59481c995c5d5a5c9959606a1b6044820152606490fd5b60405162461bcd60e51b8152602060048201526012602482015271125b9d985b1a59081c1c9a58d9481999595960721b6044820152606490fd5b60405162461bcd60e51b815260206004820152602560248201527f5265736f6c7574696f6e2074696d65206d75737420626520696e207468652066604482015264757475726560d81b6064820152608490fd5b50346200026d57806003193601126200026d5760206040516207a1208152f35b50346200026d57806003193601126200026d576020600154604051908152f35b50346200026d5760203660031901126200026d57602062001b8c62001b8662001c67565b62001f05565b6040519015158152f35b50346200026d57806003193601126200026d57602060405160328152f35b50346200026d57806003193601126200026d576040517f00000000000000000000000000000000000000000000000000000000000000006001600160a01b03168152602090f35b50346200026d57806003193601126200026d5760206040517f00000000000000000000000000000000000000000000000000000000000000008152f35b905034620006255781600319360112620006255760609060035460045460055491835260208301526040820152f35b600435906001600160a01b038216820362001c7e57565b600080fd5b67ffffffffffffffff811162001c9857604052565b634e487b7160e01b600052604160045260246000fd5b6020810190811067ffffffffffffffff82111762001c9857604052565b90601f8019910116810190811067ffffffffffffffff82111762001c9857604052565b67ffffffffffffffff811162001c9857601f01601f191660200190565b81601f8201121562001c7e5780359062001d258262001cee565b9262001d35604051948562001ccb565b8284526020838301011162001c7e57816000926020809301838601378301015290565b6020908160408183019282815285518094520193019160005b82811062001d80575050505090565b83516001600160a01b03168552938101939281019260010162001d71565b60005b83811062001db25750506000910152565b818101518382015260200162001da1565b9060209162001dde8151809281855285808601910162001d9e565b601f01601f1916010190565b60015481101562001e225760016000527fb10e2d527612073b26eecdfd717e6a320cf44b4afac2b0732d9fcbe2b7fa0cf60190600090565b634e487b7160e01b600052603260045260246000fd5b6000546001600160a01b0316330362001e4d57565b606460405162461bcd60e51b815260206004820152602060248201527f4f776e61626c653a2063616c6c6572206973206e6f7420746865206f776e65726044820152fd5b9190820180921162001e9f57565b634e487b7160e01b600052601160045260246000fd5b9081602091031262001c7e5751801515810362001c7e5790565b519069ffffffffffffffffffff8216820362001c7e57565b9190820391821162001e9f57565b600019811462001e9f5760010190565b600180549160005b83811062001f1e5750505050600090565b62001f298162001dea565b905460039190911b1c6001600160a01b039081169083161462001f575762001f519062001ef5565b62001f0d565b5050905090565b1562001f6657565b60405162461bcd60e51b815260206004820152601d60248201527f416d6f756e74206d7573742062652067726561746572207468616e20300000006044820152606490fd5b1562001fb357565b60405162461bcd60e51b8152602060048201526016602482015275496e76616c6964206d61726b6574206164647265737360501b6044820152606490fd5b90815181101562001e22570160200190565b61ffff8060025416606480820491069182161560001462002068576200202a9150620020dc565b620020656021604051836200204a82955180926020808601910162001d9e565b8101602560f81b602082015203600181018452018262001ccb565b90565b6022620020846200207d6200206593620020dc565b93620020dc565b926040519381620020a086935180926020808701910162001d9e565b8201601760f91b6020820152620020c282518093602060218501910162001d9e565b01602560f81b602182015203600281018452018262001ccb565b9061ffff9182811615620021aa5780836000925b169182156200211257841684811462001e9f57600a60018692019304620020f0565b909391508180821694620021268662001cee565b9562002136604051978862001ccb565b80875262002147601f199162001cee565b013660208801375b16908115620021a55782166000190182811162001e9f578091600a9084828206166030019285841162001e9f57859360f81b6001600160f81b03191660001a906200219d9085168962001ff1565b53046200214f565b505050565b5090506040516040810181811067ffffffffffffffff82111762001c985760405260018152600360fc1b602082015290565b67ffffffffffffffff811162001c985760051b6020019056fe610120604052346200071957620031b1803803806200001e816200071e565b928339810161014082820312620007195781516001600160401b0381116200071957816200004e91840162000744565b602083015190916001600160401b03821162000719576200007191840162000744565b6040830151916060840151926200008b60808601620007b6565b906200009a60a08701620007b6565b92620000a960c08801620007b6565b9460e0880151966101206101008a01519901519061ffff82168203620007195760016000553315620006d457600180546001600160a01b03199081163317909155600380549091166001600160a01b038a1617905542811115620006855784156200063457604051946001600160401b03610220870190811190871117620005225761ffff93610220870160405285875260208701526040860152606085015260006080850152600060a0850152600060c0850152600060e085015260006101008501526000610120850152166101408301526000610160830152600061018083015260006101a083015260006101c083015260006101e0830152600061020083015280519060018060401b038211620005225760055490600182811c9216801562000629575b6020831014620005015781601f849311620005d3575b50602090601f8311600114620005445760009262000538575b50508160011b916000199060031b1c1916176005555b60208101518051906001600160401b0382116200052257600654600181811c9116801562000517575b60208210146200050157601f81116200049b575b50602090601f83116001146200042657610200939291600091836200041a575b50508160011b916000199060031b1c1916176006555b6040810151600755606081015160085560ff6080820151151560095461ff0060a0850151151560081b169161ffff19938491169116171760095560c0820151600a5560e0820151600b55610100820151600c55610120820151600d5561ffff6101408301511690600e541617600e55610160810151600f5561018081015160105560018060a01b036101a0820151166011549060ff60a01b6101c0840151151560a01b169160018060a81b03191617176011556101e08101516012550151151560ff80196013541691161760135560018060a01b031660805260018060a01b031660a0523360018060a01b0319600454161760045560018060a01b031660c05260e052610100526040516129e59081620007cc8239608051818181610582015281816106f001528181610ad8015281816111ec015281816116170152611f0e015260a0518181816102e301528181610e5c01528181610fc90152612071015260c05181818161062d0152612634015260e0518181816117e10152612596015261010051818181610f7e015261256f0152f35b01519050388062000272565b90600660005260206000209160005b601f19851681106200048257509183916001936102009695601f1981161062000468575b505050811b0160065562000288565b015160001960f88460031b161c1916905538808062000459565b9192602060018192868501518155019401920162000435565b60066000527ff652222313e28459528d920b65115c16c04f3efc82aaedc97be59f3f377c0d3f601f840160051c810160208510620004f9575b601f830160051c82018110620004ec57505062000252565b60008155600101620004d4565b5080620004d4565b634e487b7160e01b600052602260045260246000fd5b90607f16906200023e565b634e487b7160e01b600052604160045260246000fd5b015190503880620001ff565b6005600090815293507f036b6384b5eca791c62761152d0c79bb0604c104a5fb6f4eb0703f3154bb3db091905b601f1984168510620005b7576001945083601f198116106200059d575b505050811b0160055562000215565b015160001960f88460031b161c191690553880806200058e565b8181015183556020948501946001909301929091019062000571565b90915060056000526020600020601f840160051c81016020851062000621575b90849392915b601f830160051c8201811062000611575050620001e6565b60008155859450600101620005f9565b5080620005f3565b91607f1691620001d0565b60405162461bcd60e51b815260206004820152602360248201527f546172676574207072696365206d75737420626520677265617465722074686160448201526206e20360ec1b6064820152608490fd5b60405162461bcd60e51b815260206004820152602160248201527f5265736f6c7574696f6e2074696d65206d75737420626520696e2066757475726044820152606560f81b6064820152608490fd5b60405162461bcd60e51b815260206004820152601860248201527f43616e6e6f7420736574206f776e657220746f207a65726f00000000000000006044820152606490fd5b600080fd5b6040519190601f01601f191682016001600160401b038111838210176200052257604052565b919080601f84011215620007195782516001600160401b03811162000522576020906200077a601f8201601f191683016200071e565b92818452828287010111620007195760005b818110620007a257508260009394955001015290565b85810183015184820184015282016200078c565b51906001600160a01b0382168203620007195756fe60808060405260048036101561001457600080fd5b600091823560e01c90816309c1ba2e146117ca5750806310660b11146117375780631690fe54146115bc5780631fe543e31461144357806322af00fa146113d557806323341a05146113365780632b9b55b31461126b57806333d608f11461124d57806335637bde1461121b57806343425e88146111d65780634585e33b146110fe578063475460fa146110a35780634a68d2e91461107d5780635abd0f6414610fa157806361728f3914610f665780636694f1a514610f3d57806367f082b014610f215780636e04ff0d14610ea757806372cf6e3414610e8b578063741bef1a14610e4657806379ba509714610d9b5780637b6e1f9a14610d625780638068aa6814610d0c57806380f5560514610c115780638a69614e14610a525780638da5cb5b14610a295780638ea98117146109a25780639eccacf6146109795780639ed9c74d1461065c578063a3e56fa814610617578063ad4472191461053a578063b624010a14610501578063b93dab0b146104e3578063c40edb441461046e578063c45a015514610447578063de87b07d14610377578063eb91d37e146102bc5763f2fde38b146101c457600080fd5b346102b85760203660031901126102b8576101dd6118e8565b6001546001600160a01b03908116913383900361027b5716913383146102375750600280546001600160a01b031916831790557fed8889f560326eb138920d842192f0eb3dd22b4f139c87a2c57538e05bae12788380a380f35b60649060206040519162461bcd60e51b8352820152601760248201527f43616e6e6f74207472616e7366657220746f2073656c660000000000000000006044820152fd5b60405162461bcd60e51b8152602081860152601660248201527527b7363c9031b0b63630b1363290313c9037bbb732b960511b6044820152606490fd5b5080fd5b50346102b857816003193601126102b857604051633fabe5a360e21b81529060a0908290817f00000000000000000000000000000000000000000000000000000000000000006001600160a01b03165afa90811561036c57916020928192610333575b5061032b908213612973565b604051908152f35b61032b9192506103599060a03d8111610365575b6103518183611836565b81019061201d565b5050509050919061031f565b503d610347565b6040513d84823e3d90fd5b509034610444576040366003190112610444576103926118e8565b6001600160a01b03168082526015602052604082205460243593908410156104105760806103da6103ce8660408787815260156020522061194d565b90549060031b1c611858565b5060018101549060ff60036002830154920154916040519384528181161515602085015260081c16151560408301526060820152f35b60649060206040519162461bcd60e51b8352820152600d60248201526c092dcecc2d8d2c840d2dcc8caf609b1b6044820152fd5b80fd5b50346102b857816003193601126102b857546040516001600160a01b039091168152602090f35b8234610444576020366003190112610444576104886118e8565b60ff6009541690816104d3575b816104ba575b50806104af575b6020906040519015158152f35b5060105415156104a2565b6011546001600160a01b0391821691161490508161049b565b60115460a01c60ff169150610495565b82346104445780600319360112610444576020601454604051908152f35b8234610444576020366003190112610444576020906040906001600160a01b036105296118e8565b168152601583522054604051908152f35b50903461044457806003193601126104445781546001600160a01b0316338190036105e25761056d60ff600954166127e4565b600f549081156105a957906105a69183600f557f0000000000000000000000000000000000000000000000000000000000000000612794565b80f35b60405162461bcd60e51b81526020818601526012602482015271139bc81999595cc81d1bc818dbdb1b1958dd60721b6044820152606490fd5b60405162461bcd60e51b8152602081850152600e60248201526d139bdd08185d5d1a1bdc9a5e995960921b6044820152606490fd5b82346104445780600319360112610444576040517f00000000000000000000000000000000000000000000000000000000000000006001600160a01b03168152602090f35b50346102b85760403660031901126102b85780359060249081358015159182820361097557610689611b73565b61069860ff6009541615611b04565b8415610932576008544210156108ef576040516323b872dd60e01b602082015233858201523060448201526064808201879052815267ffffffffffffffff919060a08101838111828210176108dd57604052610714907f0000000000000000000000000000000000000000000000000000000000000000611bc9565b601454946040519260a0840190848210908211176108cb5760405233835260208301928784526040810186815260608201908a825260808301918b83526801000000000000000096878b10156108b95760018b016014556107748b611858565b9590956108a8579060039493929160018060a01b039051166001600160601b0360a01b87541617865551600186015560028501915115159060ff61ff0084549251151560081b1692169061ffff1916171790555191015533885260156020526040882091825493841015610897575050906107f49160018201815561194d565b81549060031b9085821b91600019901b1916179055338552601660205260408520610820858254611b50565b905561082e84600b54611b50565b600b55156108835761084283600c54611b50565b600c555b604051928352602083015260408201527fb2dea862933fda054de6f12d6e0b7affaff4ba9f6aa471c7532461410d6ba46d60603392a26001815580f35b61088f83600d54611b50565b600d55610846565b634e487b7160e01b89526041905287fd5b634e487b7160e01b8e528d8852868efd5b634e487b7160e01b8d5260418752858dfd5b50634e487b7160e01b88526041825287fd5b634e487b7160e01b8952604183528689fd5b60649060188560206040519362461bcd60e51b85528401528201527f42657474696e6720706572696f642068617320656e64656400000000000000006044820152fd5b606490601d8560206040519362461bcd60e51b85528401528201527f416d6f756e74206d7573742062652067726561746572207468616e20300000006044820152fd5b8580fd5b82346104445780600319360112610444576003546040516001600160a01b039091168152602090f35b50346102b85760203660031901126102b8576109bc6118e8565b6001546001600160a01b03929083163381141580610a1b575b6109f2575050166001600160601b0360a01b600354161760035580f35b606492508360035416906040519263061db9c160e01b8452339084015260248301526044820152fd5b5083600354163314156109d5565b82346104445780600319360112610444576001546040516001600160a01b039091168152602090f35b50346102b857602080600319360112610c0d57813591610a70611b73565b610a7e60ff60095416612872565b601454831015610bd757610a9183611858565b5080549091906001600160a01b03163303610ba4576002820180549260ff8460081c16610b6e57600301928354928315610b34575061ff001916610100179055610afc90337f0000000000000000000000000000000000000000000000000000000000000000612794565b54906040519283528201527f0408e6e0b73daf4c873106e95fd067260fbff8bf9d1b499cad563d4480d45bac60403392a26001815580f35b60405162461bcd60e51b815290810186905260136024820152724e6f207061796f757420617661696c61626c6560681b6044820152606490fd5b60405162461bcd60e51b8152808401869052600f60248201526e105b1c9958591e4818db185a5b5959608a1b6044820152606490fd5b60405162461bcd60e51b8152908101839052600c60248201526b139bdd081e5bdd5c8818995d60a21b6044820152606490fd5b6064916040519162461bcd60e51b83528201526011602482015270092dcecc2d8d2c840c4cae840d2dcc8caf607b1b6044820152fd5b8280fd5b8234610444578060031936011261044457610c2a611965565b610c32611a50565b600754600854600954600a54600b54600c54600d54600e5461ffff1690600f549260105494601154966012549860135460ff169a6040519e8f9e8f916102208084528301610c7f916118a8565b8281036020840152610c90916118a8565b9d6040820152606001528c60ff82161515906080015260081c60ff16151560a08d015260c08c015260e08b01526101008a0152610120890152610140880152610160870152610180860152600160a01b6001900381166101a086015260a01c60ff1615156101c08501526101e084015215156102008301520390f35b823461044457604036600319011261044457610d266118e8565b6001600160a01b0316815260156020526040812080546024359290831015610444576020610d54848461194d565b90546040519160031b1c8152f35b8234610444576020366003190112610444576020906040906001600160a01b03610d8a6118e8565b168152601683522054604051908152f35b50346102b857816003193601126102b857600254906001600160a01b03908183163303610e095750600154916001600160601b0360a01b903382851617600155166002553391167f8be0079c531659141344cd1fd0a4f28419497f9722a3daafe3b4186f6b6457e08380a380f35b60649060206040519162461bcd60e51b8352820152601660248201527526bab9ba10313290383937b837b9b2b21037bbb732b960511b6044820152fd5b82346104445780600319360112610444576040517f00000000000000000000000000000000000000000000000000000000000000006001600160a01b03168152602090f35b8234610444578060031936011261044457602060405160018152f35b823461044457610eb636611903565b50506008548042101580610f14575b80610f09575b60405191426020840152604083015260408252610ee782611804565b610f05604051928392151583526040602084015260408301906118a8565b0390f35b50600b541515610ecb565b5060ff6009541615610ec5565b8234610444578060031936011261044457602060405160038152f35b82346104445780600319360112610444576011546040516001600160a01b039091168152602090f35b823461044457806003193601126104445760206040517f00000000000000000000000000000000000000000000000000000000000000008152f35b509034610444578060031936011261044457604051633fabe5a360e21b81529160a0908390817f00000000000000000000000000000000000000000000000000000000000000006001600160a01b03165afa9182156110705760a0928291838080928194611041575b50611016908613612973565b6040519469ffffffffffffffffffff8095168652602086015260408501526060840152166080820152f35b925093505061101693506110629150843d8111610365576103518183611836565b92959394929390929061100a565b50604051903d90823e3d90fd5b8234610444578060031936011261044457602060ff60115460a01c166040519015158152f35b50346102b85760203660031901126102b8576110c960018060a01b0382541633146128be565b600160ff196013541617601355357f1e916386fdf1353c5211b7371daecbb479c65b8c7e5e038bbe8f850ace1622568280a280f35b50346102b85760409061111036611903565b9080939181010312610c0d57602082359201359081831015806111c9575b806111be575b1561118657507f94dfd834b72383239e7df6c2c61fc3b41d3ab79e6f22c2b3f1a413347560028591606091611167611dce565b6111718183611dae565b9060405192835260208301526040820152a180f35b60649060206040519162461bcd60e51b83528201526011602482015270155c1ad9595c081b9bdd081b9959591959607a1b6044820152fd5b50600b541515611134565b5060ff600954161561112e565b82346104445780600319360112610444576040517f00000000000000000000000000000000000000000000000000000000000000006001600160a01b03168152602090f35b823461044457604036600319011261044457602061124361123a6118e8565b60243590612902565b6040519015158152f35b82346104445780600319360112610444576020604051620186a08152f35b50346102b857816003193601126102b85780546001600160a01b031633036112f25761129c60ff6009541615611b04565b60085442106112ae57506105a6611dce565b60649060206040519162461bcd60e51b8352820152601f60248201527f4d61726b6574206e6f7420726561647920666f72207265736f6c7574696f6e006044820152fd5b60649060206040519162461bcd60e51b8352820152601860248201527f4f6e6c7920666163746f72792063616e207265736f6c766500000000000000006044820152fd5b823461044457806003193601126104445761138d60075460085490600954600a54600b54600c549160ff600d549461136c611965565b9761139b611378611a50565b6040519b8c9b8c6101408091528d01906118a8565b908b820360208d01526118a8565b9760408a015260608901528181161515608089015260081c16151560a087015260c086015260e08501526101008401526101208301520390f35b50346102b85760203660031901126102b85735906014548210156104445760a06113fe83611858565b50600180831b038154169060ff600182015491600360028201549101549260405194855260208501528181161515604085015260081c16151560608301526080820152f35b5090346104445760403660031901126104445760249167ffffffffffffffff83358181116115b857366023820112156115b857808301359182116115a6578160051b946040519160209361149985890185611836565b8352838301828198830101913683116115a25783869101915b8383106115925750506003546001600160a01b03969250861690503381900361157757506114e460ff600954166127e4565b601154926114f860ff8560a01c1615612826565b51156115665750506115396115347f51fc99bcdaba92289675dd6be8bd6122ee9019dbd2bf5e9ada4e252985c1a92294959651601454906126c5565b611858565b50546001600160a81b031990911690841617600160a01b176011819055601054604051908152931692a280f35b634e487b7160e01b86526032905284fd5b6044926040519263073e64fd60e21b84523390840152820152fd5b82358152918101918691016114b2565b8780fd5b5050634e487b7160e01b825260419052fd5b8380fd5b50346102b857816003193601126102b8576115d5611b73565b6115e360ff60095416612872565b60115460ff8160a01c16156116f3576001600160a01b031633036116af5760105490811561167657508160105561163b81337f0000000000000000000000000000000000000000000000000000000000000000612794565b60405190600019825260208201527f0408e6e0b73daf4c873106e95fd067260fbff8bf9d1b499cad563d4480d45bac60403392a26001815580f35b60649060206040519162461bcd60e51b835282015260126024820152714e6f20626f6e757320617661696c61626c6560701b6044820152fd5b60649060206040519162461bcd60e51b8352820152601d60248201527f596f7520617265206e6f74207468652072616e646f6d2077696e6e65720000006044820152fd5b60405162461bcd60e51b8152602081840152601e60248201527f52616e646f6d2077696e6e6572206e6f742073656c65637465642079657400006044820152606490fd5b50346102b857816003193601126102b85761175c60018060a01b0382541633146128be565b61176a60ff600954166127e4565b61177c60ff60115460a01c1615612826565b6014541561178d57506105a66126cf565b60649060206040519162461bcd60e51b835282015260166024820152754e6f206265747320746f2073656c6563742066726f6d60501b6044820152fd5b8390346102b857816003193601126102b8576020907f00000000000000000000000000000000000000000000000000000000000000008152f35b6060810190811067ffffffffffffffff82111761182057604052565b634e487b7160e01b600052604160045260246000fd5b90601f8019910116810190811067ffffffffffffffff82111761182057604052565b60145481101561189257601460005260021b7fce6d7b5282bd9a3661ae061feed1dbda4e52ab073b1f9285be6e155d9c38d4ec0190600090565b634e487b7160e01b600052603260045260246000fd5b919082519283825260005b8481106118d4575050826000602080949584010152601f8019910116010190565b6020818301810151848301820152016118b3565b600435906001600160a01b03821682036118fe57565b600080fd5b9060206003198301126118fe5760043567ffffffffffffffff928382116118fe57806023830112156118fe5781600401359384116118fe57602484830101116118fe576024019190565b80548210156118925760005260206000200190600090565b60405190600060055490600182811c90808416938415611a46575b6020948584108114611a325783885287949392918115611a1257506001146119b3575b50506119b192500383611836565b565b9093915060056000527f036b6384b5eca791c62761152d0c79bb0604c104a5fb6f4eb0703f3154bb3db0936000915b8183106119fa5750506119b1935082010138806119a3565b855488840185015294850194879450918301916119e2565b9150506119b194925060ff191682840152151560051b82010138806119a3565b634e487b7160e01b85526022600452602485fd5b91607f1691611980565b60405190600060065490600182811c90808416938415611afa575b6020948584108114611a325783885287949392918115611a125750600114611a9b5750506119b192500383611836565b9093915060066000527ff652222313e28459528d920b65115c16c04f3efc82aaedc97be59f3f377c0d3f936000915b818310611ae25750506119b1935082010138806119a3565b85548884018501529485019487945091830191611aca565b91607f1691611a6b565b15611b0b57565b60405162461bcd60e51b815260206004820152601760248201527f4d61726b657420616c7265616479207265736f6c7665640000000000000000006044820152606490fd5b91908201809211611b5d57565b634e487b7160e01b600052601160045260246000fd5b600260005414611b84576002600055565b60405162461bcd60e51b815260206004820152601f60248201527f5265656e7472616e637947756172643a207265656e7472616e742063616c6c006044820152606490fd5b60018060a01b031690604051604081019080821067ffffffffffffffff83111761182057611c3b916040526020938482527f5361666545524332303a206c6f772d6c6576656c2063616c6c206661696c6564858301526000808587829751910182855af1611c35611cd1565b91611d11565b805191821591848315611cad575b505050905015611c565750565b6084906040519062461bcd60e51b82526004820152602a60248201527f5361666545524332303a204552433230206f7065726174696f6e20646964206e6044820152691bdd081cdd58d8d9595960b21b6064820152fd5b9193818094500103126102b857820151908115158203610444575080388084611c49565b3d15611d0c573d9067ffffffffffffffff82116118205760405191611d00601f8201601f191660200184611836565b82523d6000602084013e565b606090565b91929015611d735750815115611d25575090565b3b15611d2e5790565b60405162461bcd60e51b815260206004820152601d60248201527f416464726573733a2063616c6c20746f206e6f6e2d636f6e74726163740000006044820152606490fd5b825190915015611d865750805190602001fd5b60405162461bcd60e51b815260206004820152908190611daa9060248301906118a8565b0390fd5b91908203918211611b5d57565b81810292918115918404141715611b5d57565b600854611ddc600091612061565b80600a556001600754821161ff006009549160081b169061ffff19161717600955600b5461271061ffff9181611e1684600e541683611dbb565b04600f5560c881029080820460c81490151715611ff25704601055611e3961233d565b601454611fe5575b7fc467918c4a7bed3537d128ba86e494ce4d957e99fc68ecb4a8d5d23cbeebe393606060ff60095460081c166040948551911515825260208201524285820152a180600e541680611efa575b50479081611e9c575b50505050565b838080808560018060a01b03600454165af1611eb6611cd1565b5015611e96577fc93270b5833c2f04fb75a1be4543b1240a92857165963be1ca65f056a2d885bb93601255600e54169082519182526020820152a138808080611e96565b6004546001600160a01b0391611f329183167f0000000000000000000000000000000000000000000000000000000000000000612794565b6004541681600e5416813b15611fe1578491602483928651948593849263b17acdcd60e01b845260048401525af18015611fd457611fa5575b507fc93270b5833c2f04fb75a1be4543b1240a92857165963be1ca65f056a2d885bb8282600e54168151908152856020820152a138611e8d565b67ffffffffffffffff8194929411611fc05782529138611f6b565b634e487b7160e01b82526041600452602482fd5b50505051903d90823e3d90fd5b8480fd5b611fed612503565b611e41565b634e487b7160e01b85526011600452602485fd5b519069ffffffffffffffffffff821682036118fe57565b908160a09103126118fe5761203181612006565b9160208201519160408101519161204f608060608401519301612006565b90565b6000198114611b5d5760010190565b60408051633fabe5a360e21b81527f00000000000000000000000000000000000000000000000000000000000000006001600160a01b031692909160049160a09081858581895afa9182156123325760009283968491612307575b5060008413156122c45761038483018084116122af578711156122a45792958280821115612295576120ed91611dae565b9260005b600a811080612280575b1561226f5769ffffffffffffffffffff809216801561225a57600019019160008088519260209384810191639a6fc8f560e01b8352602490881681830152815261214481611804565b51908d5afa90612152611cd1565b918061224f575b61216e575b505061216990612052565b6120f1565b9081612180928251830101910161201d565b5091925050600082131561215e578581119086821561223f576121a291611dae565b915b878310612232575b50159081612225575b506121c157388061215e565b50505050611c2091929394505b116121d857505090565b906020608492519162461bcd60e51b8352820152602160248201527f4e6f20726563656e7420656e6f756768207072696365206461746120666f756e6044820152601960fa1b6064820152fd5b610e1091501115386121b5565b99509095508590386121ac565b9061224991611dae565b916121a4565b508482511015612159565b601188634e487b7160e01b6000525260246000fd5b50505050611c2091929394506121ce565b5069ffffffffffffffffffff821615156120fb565b9061229f91611dae565b6120ed565b505050935050505090565b601187634e487b7160e01b6000525260246000fd5b845162461bcd60e51b8152602081880181905260248201527f496e76616c6964206c61746573742070726963652066726f6d206f7261636c656044820152606490fd5b91935050612323919550823d8411610365576103518183611836565b979350939190509295386120bc565b83513d6000823e3d90fd5b60ff90600980549083600892831c1693846000146124fa57600c54945b156124f157600d54915b8515928361245d5761237c61238591600f5490611dae565b60105490611dae565b9160005b6014548110156124535761239c81611858565b509082600283015416838554891c1615159015151460001461244357600182015491866123c98785611dbb565b9061242d57612428938b6123de920490611b50565b60038201555b7fd35211b19cf414aebf3028d37c4f9c6748aa8989fdedb5bc693649e055e91b7f600360018060a01b038354169201546040908151908582526020820152a2612052565b612389565b634e487b7160e01b600052601260045260246000fd5b81600060036124289401556123e4565b5050505050509050565b5050505050905060005b6014548110156124ee578061247e6124e992611858565b50600180910154600361249084611858565b5001557fd35211b19cf414aebf3028d37c4f9c6748aa8989fdedb5bc693649e055e91b7f6124bd83611858565b50546001600160a01b0316916124d284611858565b5001546040908151908582526020820152a2612052565b612467565b50565b600c5491612364565b600d549461235a565b601454156119b1576040805167ffffffffffffffff919060208082018481118382101761182057835260009384835283519263125fa26760e31b8385015251151560248401526024835261255683611804565b83519060c08201908111828210176126b15790829185527f00000000000000000000000000000000000000000000000000000000000000008152818101907f0000000000000000000000000000000000000000000000000000000000000000825261262f868201956003875260608301620186a08152608084016001815260a0850192835261ffff8a51998a978897634d8e1c2f60e11b89528a60048a01525160248901525160448801525116606486015263ffffffff809251166084860152511660a48401525160c060c484015260e48301906118a8565b0381877f00000000000000000000000000000000000000000000000000000000000000006001600160a01b03165af1849281612682575b5061267757505050506119b16126cf565b601791845252812055565b9092508181813d83116126aa575b61269a8183611836565b81010312611fe157519138612666565b503d612690565b634e487b7160e01b86526041600452602486fd5b811561242d570690565b60145480156124ee576000194301438111611b5d57600b549160405192602084019242845244604086015240606085015260808401528060a084015260a0835260c083019183831067ffffffffffffffff8411176118205761273a93611534936040525190206126c5565b5054601180546001600160a81b0319166001600160a01b0392831617600160a01b17908190556010546040519081529116907f51fc99bcdaba92289675dd6be8bd6122ee9019dbd2bf5e9ada4e252985c1a92290602090a2565b60405163a9059cbb60e01b60208201526001600160a01b039092166024830152604480830193909352918152608081019167ffffffffffffffff831182841017611820576119b192604052611bc9565b156127eb57565b60405162461bcd60e51b815260206004820152601360248201527213585c9ad95d081b9bdd081c995cdbdb1d9959606a1b6044820152606490fd5b1561282d57565b60405162461bcd60e51b815260206004820152601e60248201527f52616e646f6d2077696e6e657220616c72656164792073656c656374656400006044820152606490fd5b1561287957565b60405162461bcd60e51b815260206004820152601760248201527f4d61726b6574206e6f74207265736f6c766564207965740000000000000000006044820152606490fd5b156128c557565b60405162461bcd60e51b815260206004820152601560248201527413db9b1e48199858dd1bdc9e4818d85b8818d85b1b605a1b6044820152606490fd5b9060ff60095416158015612967575b6129605761291e90611858565b5080546001600160a01b03928316921691909114908161294d575b81612942575090565b600391500154151590565b600281015460081c60ff16159150612939565b5050600090565b50601454811015612911565b1561297a57565b60405162461bcd60e51b815260206004820152600d60248201526c496e76616c696420707269636560981b6044820152606490fdfea2646970667358221220737ced354ee37a2ae74131e4274f5ff776875574a20851abae5f04df3de497ee64736f6c63430008130033a264697066735822122050c6bf3485fb19f7b48bfa6348f8ce0bb74c9e5f888657879b1bcce4d54c6b6a64736f6c63430008130033",
  "linkReferences": {},
  "deployedLinkReferences": {}
}