{
  "_format": "hh-sol-artifact-1",
  "contractName": "MarketFactory",
  "sourceName": "contracts/MarketFactory.sol",
  "abi": [
    {
      "inputs": [
        {
          "internalType": "address",
          "name": "_bettingToken",
          "type": "address"
        },
        {
          "internalType": "address",
          "name": "_linkToken",
          "type": "address"
        },
        {
          "internalType": "address",
          "name": "_vrfCoordinator",
          "type": "address"
        },
        {
          "internalType": "bytes32",
          "name": "_keyHash",
          "type": "bytes32"
        },
        {
          "internalType": "uint256",
          "name": "_subscriptionId",
          "type": "uint256"
        },
        {
          "internalType": "address",
          "name": "_automationRegistrar",
          "type": "address"
        }
      ],
      "stateMutability": "nonpayable",
      "type": "constructor"
    },
    {
      "anonymous": false,
      "inputs": [
        {
          "indexed": true,
          "internalType": "address",
          "name": "market",
          "type": "address"
        },
        {
          "indexed": true,
          "internalType": "uint256",
          "name": "upkeepId",
          "type": "uint256"
        }
      ],
      "name": "AutomationRegistered",
      "type": "event"
    },
    {
      "anonymous": false,
      "inputs": [
        {
          "indexed": false,
          "internalType": "uint256",
          "name": "ethBalance",
          "type": "uint256"
        },
        {
          "indexed": false,
          "internalType": "uint256",
          "name": "linkBalance",
          "type": "uint256"
        }
      ],
      "name": "BalanceCheck",
      "type": "event"
    },
    {
      "anonymous": false,
      "inputs": [
        {
          "indexed": true,
          "internalType": "address",
          "name": "token",
          "type": "address"
        },
        {
          "indexed": false,
          "internalType": "uint256",
          "name": "amount",
          "type": "uint256"
        }
      ],
      "name": "FeesCollected",
      "type": "event"
    },
    {
      "anonymous": false,
      "inputs": [
        {
          "indexed": true,
          "internalType": "address",
          "name": "token",
          "type": "address"
        },
        {
          "indexed": false,
          "internalType": "uint256",
          "name": "amount",
          "type": "uint256"
        }
      ],
      "name": "FundsDeposited",
      "type": "event"
    },
    {
      "anonymous": false,
      "inputs": [
        {
          "indexed": true,
          "internalType": "address",
          "name": "token",
          "type": "address"
        },
        {
          "indexed": false,
          "internalType": "uint256",
          "name": "amount",
          "type": "uint256"
        }
      ],
      "name": "FundsWithdrawn",
      "type": "event"
    },
    {
      "anonymous": false,
      "inputs": [
        {
          "indexed": true,
          "internalType": "address",
          "name": "market",
          "type": "address"
        },
        {
          "indexed": true,
          "internalType": "address",
          "name": "creator",
          "type": "address"
        },
        {
          "indexed": false,
          "internalType": "string",
          "name": "assetName",
          "type": "string"
        },
        {
          "indexed": false,
          "internalType": "string",
          "name": "baseAsset",
          "type": "string"
        },
        {
          "indexed": false,
          "internalType": "uint256",
          "name": "targetPrice",
          "type": "uint256"
        },
        {
          "indexed": false,
          "internalType": "uint256",
          "name": "resolutionTime",
          "type": "uint256"
        },
        {
          "indexed": false,
          "internalType": "address",
          "name": "priceFeed",
          "type": "address"
        }
      ],
      "name": "MarketCreated",
      "type": "event"
    },
    {
      "anonymous": false,
      "inputs": [
        {
          "indexed": true,
          "internalType": "address",
          "name": "creator",
          "type": "address"
        },
        {
          "indexed": false,
          "internalType": "string",
          "name": "assetName",
          "type": "string"
        },
        {
          "indexed": false,
          "internalType": "address",
          "name": "priceFeed",
          "type": "address"
        }
      ],
      "name": "MarketCreationStarted",
      "type": "event"
    },
    {
      "anonymous": false,
      "inputs": [
        {
          "indexed": false,
          "internalType": "address",
          "name": "marketAddress",
          "type": "address"
        }
      ],
      "name": "MarketDeploymentCompleted",
      "type": "event"
    },
    {
      "anonymous": false,
      "inputs": [],
      "name": "MarketDeploymentStarted",
      "type": "event"
    },
    {
      "anonymous": false,
      "inputs": [
        {
          "indexed": true,
          "internalType": "address",
          "name": "market",
          "type": "address"
        },
        {
          "indexed": false,
          "internalType": "uint256",
          "name": "ethAmount",
          "type": "uint256"
        },
        {
          "indexed": false,
          "internalType": "uint256",
          "name": "linkAmount",
          "type": "uint256"
        }
      ],
      "name": "MarketFunded",
      "type": "event"
    },
    {
      "anonymous": false,
      "inputs": [
        {
          "indexed": true,
          "internalType": "address",
          "name": "previousOwner",
          "type": "address"
        },
        {
          "indexed": true,
          "internalType": "address",
          "name": "newOwner",
          "type": "address"
        }
      ],
      "name": "OwnershipTransferred",
      "type": "event"
    },
    {
      "anonymous": false,
      "inputs": [
        {
          "indexed": false,
          "internalType": "address",
          "name": "priceFeed",
          "type": "address"
        },
        {
          "indexed": false,
          "internalType": "bool",
          "name": "isValid",
          "type": "bool"
        }
      ],
      "name": "PriceFeedValidation",
      "type": "event"
    },
    {
      "anonymous": false,
      "inputs": [
        {
          "indexed": false,
          "internalType": "uint256",
          "name": "oldFee",
          "type": "uint256"
        },
        {
          "indexed": false,
          "internalType": "uint256",
          "name": "newFee",
          "type": "uint256"
        }
      ],
      "name": "TreasuryFeeUpdated",
      "type": "event"
    },
    {
      "anonymous": false,
      "inputs": [
        {
          "indexed": false,
          "internalType": "string",
          "name": "step",
          "type": "string"
        }
      ],
      "name": "ValidationPassed",
      "type": "event"
    },
    {
      "inputs": [],
      "name": "AUTOMATION_FUNDING",
      "outputs": [
        {
          "internalType": "uint256",
          "name": "",
          "type": "uint256"
        }
      ],
      "stateMutability": "view",
      "type": "function"
    },
    {
      "inputs": [],
      "name": "AUTOMATION_GAS_LIMIT",
      "outputs": [
        {
          "internalType": "uint256",
          "name": "",
          "type": "uint256"
        }
      ],
      "stateMutability": "view",
      "type": "function"
    },
    {
      "inputs": [],
      "name": "MAX_TREASURY_FEE",
      "outputs": [
        {
          "internalType": "uint256",
          "name": "",
          "type": "uint256"
        }
      ],
      "stateMutability": "view",
      "type": "function"
    },
    {
      "inputs": [],
      "name": "MIN_ETH_FUNDING",
      "outputs": [
        {
          "internalType": "uint256",
          "name": "",
          "type": "uint256"
        }
      ],
      "stateMutability": "view",
      "type": "function"
    },
    {
      "inputs": [],
      "name": "MIN_LINK_FUNDING",
      "outputs": [
        {
          "internalType": "uint256",
          "name": "",
          "type": "uint256"
        }
      ],
      "stateMutability": "view",
      "type": "function"
    },
    {
      "inputs": [],
      "name": "MIN_TREASURY_FEE",
      "outputs": [
        {
          "internalType": "uint256",
          "name": "",
          "type": "uint256"
        }
      ],
      "stateMutability": "view",
      "type": "function"
    },
    {
      "inputs": [],
      "name": "automationRegistrar",
      "outputs": [
        {
          "internalType": "address",
          "name": "",
          "type": "address"
        }
      ],
      "stateMutability": "view",
      "type": "function"
    },
    {
      "inputs": [],
      "name": "bettingToken",
      "outputs": [
        {
          "internalType": "address",
          "name": "",
          "type": "address"
        }
      ],
      "stateMutability": "view",
      "type": "function"
    },
    {
      "inputs": [
        {
          "internalType": "uint256",
          "name": "amount",
          "type": "uint256"
        }
      ],
      "name": "collectFees",
      "outputs": [],
      "stateMutability": "nonpayable",
      "type": "function"
    },
    {
      "inputs": [],
      "name": "collectedFees",
      "outputs": [
        {
          "internalType": "uint256",
          "name": "",
          "type": "uint256"
        }
      ],
      "stateMutability": "view",
      "type": "function"
    },
    {
      "inputs": [
        {
          "internalType": "address",
          "name": "_priceFeed",
          "type": "address"
        },
        {
          "internalType": "string",
          "name": "_assetName",
          "type": "string"
        },
        {
          "internalType": "string",
          "name": "_baseAsset",
          "type": "string"
        },
        {
          "internalType": "uint256",
          "name": "_targetPrice",
          "type": "uint256"
        },
        {
          "internalType": "uint256",
          "name": "_resolutionTime",
          "type": "uint256"
        }
      ],
      "name": "createMarket",
      "outputs": [
        {
          "internalType": "address",
          "name": "",
          "type": "address"
        }
      ],
      "stateMutability": "nonpayable",
      "type": "function"
    },
    {
      "inputs": [],
      "name": "depositETH",
      "outputs": [],
      "stateMutability": "payable",
      "type": "function"
    },
    {
      "inputs": [
        {
          "internalType": "uint256",
          "name": "amount",
          "type": "uint256"
        }
      ],
      "name": "depositLINK",
      "outputs": [],
      "stateMutability": "nonpayable",
      "type": "function"
    },
    {
      "inputs": [
        {
          "internalType": "address payable",
          "name": "marketAddress",
          "type": "address"
        }
      ],
      "name": "emergencyResolveMarket",
      "outputs": [],
      "stateMutability": "nonpayable",
      "type": "function"
    },
    {
      "inputs": [],
      "name": "ethBalance",
      "outputs": [
        {
          "internalType": "uint256",
          "name": "",
          "type": "uint256"
        }
      ],
      "stateMutability": "view",
      "type": "function"
    },
    {
      "inputs": [
        {
          "internalType": "address payable",
          "name": "marketAddress",
          "type": "address"
        },
        {
          "internalType": "uint256",
          "name": "ethAmount",
          "type": "uint256"
        },
        {
          "internalType": "uint256",
          "name": "linkAmount",
          "type": "uint256"
        }
      ],
      "name": "fundExistingMarket",
      "outputs": [],
      "stateMutability": "nonpayable",
      "type": "function"
    },
    {
      "inputs": [],
      "name": "getAllMarkets",
      "outputs": [
        {
          "internalType": "address[]",
          "name": "",
          "type": "address[]"
        }
      ],
      "stateMutability": "view",
      "type": "function"
    },
    {
      "inputs": [],
      "name": "getBalances",
      "outputs": [
        {
          "internalType": "uint256",
          "name": "_ethBalance",
          "type": "uint256"
        },
        {
          "internalType": "uint256",
          "name": "_linkBalance",
          "type": "uint256"
        },
        {
          "internalType": "uint256",
          "name": "_collectedFees",
          "type": "uint256"
        }
      ],
      "stateMutability": "view",
      "type": "function"
    },
    {
      "inputs": [
        {
          "internalType": "uint256",
          "name": "start",
          "type": "uint256"
        },
        {
          "internalType": "uint256",
          "name": "end",
          "type": "uint256"
        }
      ],
      "name": "getMarketsByRange",
      "outputs": [
        {
          "internalType": "address[]",
          "name": "",
          "type": "address[]"
        }
      ],
      "stateMutability": "view",
      "type": "function"
    },
    {
      "inputs": [],
      "name": "getMarketsCount",
      "outputs": [
        {
          "internalType": "uint256",
          "name": "",
          "type": "uint256"
        }
      ],
      "stateMutability": "view",
      "type": "function"
    },
    {
      "inputs": [],
      "name": "getTreasuryFee",
      "outputs": [
        {
          "internalType": "uint256",
          "name": "",
          "type": "uint256"
        }
      ],
      "stateMutability": "view",
      "type": "function"
    },
    {
      "inputs": [],
      "name": "getTreasuryFeePercent",
      "outputs": [
        {
          "internalType": "string",
          "name": "",
          "type": "string"
        }
      ],
      "stateMutability": "view",
      "type": "function"
    },
    {
      "inputs": [
        {
          "internalType": "address",
          "name": "market",
          "type": "address"
        }
      ],
      "name": "isMarketValid",
      "outputs": [
        {
          "internalType": "bool",
          "name": "",
          "type": "bool"
        }
      ],
      "stateMutability": "view",
      "type": "function"
    },
    {
      "inputs": [],
      "name": "keyHash",
      "outputs": [
        {
          "internalType": "bytes32",
          "name": "",
          "type": "bytes32"
        }
      ],
      "stateMutability": "view",
      "type": "function"
    },
    {
      "inputs": [],
      "name": "linkBalance",
      "outputs": [
        {
          "internalType": "uint256",
          "name": "",
          "type": "uint256"
        }
      ],
      "stateMutability": "view",
      "type": "function"
    },
    {
      "inputs": [],
      "name": "linkToken",
      "outputs": [
        {
          "internalType": "address",
          "name": "",
          "type": "address"
        }
      ],
      "stateMutability": "view",
      "type": "function"
    },
    {
      "inputs": [
        {
          "internalType": "uint256",
          "name": "",
          "type": "uint256"
        }
      ],
      "name": "markets",
      "outputs": [
        {
          "internalType": "address",
          "name": "",
          "type": "address"
        }
      ],
      "stateMutability": "view",
      "type": "function"
    },
    {
      "inputs": [],
      "name": "owner",
      "outputs": [
        {
          "internalType": "address",
          "name": "",
          "type": "address"
        }
      ],
      "stateMutability": "view",
      "type": "function"
    },
    {
      "inputs": [],
      "name": "renounceOwnership",
      "outputs": [],
      "stateMutability": "nonpayable",
      "type": "function"
    },
    {
      "inputs": [
        {
          "internalType": "address payable",
          "name": "marketAddress",
          "type": "address"
        }
      ],
      "name": "resolveMarket",
      "outputs": [],
      "stateMutability": "nonpayable",
      "type": "function"
    },
    {
      "inputs": [
        {
          "internalType": "address payable",
          "name": "marketAddress",
          "type": "address"
        }
      ],
      "name": "selectRandomWinnerForMarket",
      "outputs": [],
      "stateMutability": "nonpayable",
      "type": "function"
    },
    {
      "inputs": [
        {
          "internalType": "uint256",
          "name": "_treasuryFee",
          "type": "uint256"
        }
      ],
      "name": "setTreasuryFee",
      "outputs": [],
      "stateMutability": "nonpayable",
      "type": "function"
    },
    {
      "inputs": [],
      "name": "subscriptionId",
      "outputs": [
        {
          "internalType": "uint256",
          "name": "",
          "type": "uint256"
        }
      ],
      "stateMutability": "view",
      "type": "function"
    },
    {
      "inputs": [
        {
          "internalType": "address",
          "name": "newOwner",
          "type": "address"
        }
      ],
      "name": "transferOwnership",
      "outputs": [],
      "stateMutability": "nonpayable",
      "type": "function"
    },
    {
      "inputs": [],
      "name": "treasuryFee",
      "outputs": [
        {
          "internalType": "uint256",
          "name": "",
          "type": "uint256"
        }
      ],
      "stateMutability": "view",
      "type": "function"
    },
    {
      "inputs": [],
      "name": "vrfCoordinator",
      "outputs": [
        {
          "internalType": "address",
          "name": "",
          "type": "address"
        }
      ],
      "stateMutability": "view",
      "type": "function"
    },
    {
      "inputs": [
        {
          "internalType": "uint256",
          "name": "amount",
          "type": "uint256"
        }
      ],
      "name": "withdrawETH",
      "outputs": [],
      "stateMutability": "nonpayable",
      "type": "function"
    },
    {
      "inputs": [
        {
          "internalType": "uint256",
          "name": "amount",
          "type": "uint256"
        }
      ],
      "name": "withdrawFees",
      "outputs": [],
      "stateMutability": "nonpayable",
      "type": "function"
    },
    {
      "inputs": [
        {
          "internalType": "uint256",
          "name": "amount",
          "type": "uint256"
        }
      ],
      "name": "withdrawLINK",
      "outputs": [],
      "stateMutability": "nonpayable",
      "type": "function"
    }
  ],
  "bytecode": "0x610140346200018d57601f62005da538819003918201601f19168301916001600160401b03831184841017620001925780849260c0946040528339810103126200018d576200004e81620001a8565b6200005c60208301620001a8565b6200006a60408401620001a8565b6060840151906200008360a060808701519601620001a8565b60008054336001600160a01b0319821681178355604051979396939290916001600160a01b0316907f8be0079c531659141344cd1fd0a4f28419497f9722a3daafe3b4186f6b6457e09080a360c860025560805260a05260c05260e052610100928352610120908152615be79283620001be84396080518381816105f201528181610dfe0152818161115101526115be015260a0518381816105020152818161084001528181610cbb01528181610f1d015281816116d90152612272015260c0518381816107c601526115fd015260e051838181610d6a015261164b0152518281816116240152611d54015251818181611d0b015281816120b00152818161222f01526123970152f35b600080fd5b634e487b7160e01b600052604160045260246000fd5b51906001600160a01b03821682036200018d5756fe60808060405260043610156200001457600080fd5b600090813560e01c908162113e081462001d775750806309c1ba2e1462001d3a5780630c3818731462001cf357806317bd307e1462001cd55780631c8c23891462001ca15780631f3a7b7c1462001c7c57806327fa35c31462001c5c57806329070c6d146200044f57806330a2c0b01462001c3c57806342d226c9146200118057806343425e88146200113957806346b647c114620010bb5780634752ff111462000f6c5780634e6630b01462000f4c57806357970e931462000f055780635d14a8021462000ecf5780635e318e071462000d8d57806361728f391462000d505780636d57cc631462000bb2578063715018a61462000b5457806377e741c71462000a9e5780637859f4101462000a2e57806385f1b1b414620009975780638da5cb5b146200096e5780638f789171146200094a5780639003adfe146200092a578063a2a5a14c14620007f5578063a3e56fa814620007ae578063b0772d0b1462000718578063b1283e7714620006cf578063b17acdcd14620005aa578063bb84e74f146200048f578063c26ecefa146200046f578063cc32d176146200044f578063e979be8c146200042a578063f14210a61462000375578063f2b3c8091462000356578063f2fde38b14620002895763f6326fb314620001f557600080fd5b8060031936011262000286576200020b62001f77565b34156200025157620002203460035462001fd0565b600355807f543ba50a5eec5e6178218e364b1d0f396157b3c8fa278522c2cb7fd99407d4746020604051348152a280f35b60405162461bcd60e51b815260206004820152600d60248201526c09aeae6e840e6cadcc8408aa89609b1b6044820152606490fd5b80fd5b5034620002865760203660031901126200028657620002a762001da6565b620002b162001f77565b6001600160a01b039081169081156200030257600054826001600160601b0360a01b821617600055167f8be0079c531659141344cd1fd0a4f28419497f9722a3daafe3b4186f6b6457e0600080a380f35b60405162461bcd60e51b815260206004820152602660248201527f4f776e61626c653a206e6577206f776e657220697320746865207a65726f206160448201526564647265737360d01b6064820152608490fd5b5034620002865780600319360112620002865760206040516103e88152f35b5034620002865760203660031901126200028657806004356200039762001f77565b8180808084600354620003ad81831115620026b6565b620003c782801592620003c1841562002669565b62002026565b60035582546001600160a01b031690839062000420575bf115620004135760207feaff4b37086828766ad3268786972c0cd24259d4c87a80f9d3963a3c3d999b0d91604051908152a280f35b50604051903d90823e3d90fd5b506108fc620003de565b503462000286578060031936011262000286576020604051670de0b6b3a76400008152f35b503462000286578060031936011262000286576020600254604051908152f35b503462000286578060031936011262000286576020600454604051908152f35b5034620002865760203660031901126200028657600435620004b062001f77565b620004d381600454620004c68183111562002703565b620003c182151562002669565b6004908155825460405163a9059cbb60e01b81526001600160a01b0391821692810192909252602482018390527f0000000000000000000000000000000000000000000000000000000000000000169160208260448187875af19081156200059f577feaff4b37086828766ad3268786972c0cd24259d4c87a80f9d3963a3c3d999b0d926020926200056b575b50604051908152a280f35b6200058f90833d811162000597575b62000586818362001e0a565b81019062001ff4565b503862000560565b503d6200057a565b6040513d86823e3d90fd5b5034620002865760203660031901126200028657600435620005cc3362002610565b156200067e5780156200064457620005e78160055462001fd0565b6005556040519081527f00000000000000000000000000000000000000000000000000000000000000006001600160a01b0316907f9dc46f23cfb5ddcad0ae7ea2be38d47fec07bb9382ec7e564efc69e036dd66ce90602090a280f35b60405162461bcd60e51b8152602060048201526012602482015271139bc81999595cc81d1bc818dbdb1b1958dd60721b6044820152606490fd5b60405162461bcd60e51b815260206004820152602360248201527f4f6e6c792076616c6964206d61726b6574732063616e20636f6c6c656374206660448201526265657360e81b6064820152608490fd5b50346200028657602036600319011262000286576004359060015482101562000286576020620006ff8362001f29565b905460405160039290921b1c6001600160a01b03168152f35b50346200028657806003193601126200028657604051600180548083528184526020808401947fb10e2d527612073b26eecdfd717e6a320cf44b4afac2b0732d9fcbe2b7fa0cf69392915b8282106200078f576200078b866200077e818a038262001e0a565b6040519182918262001e97565b0390f35b84546001600160a01b0316875295860195938301939083019062000763565b503462000286578060031936011262000286576040517f00000000000000000000000000000000000000000000000000000000000000006001600160a01b03168152602090f35b5034620002865760208060031936011262000926576004356200081762001f77565b8015620008ed576040516323b872dd60e01b8152336004820152306024820152604481018290527f00000000000000000000000000000000000000000000000000000000000000006001600160a01b0316929091818360648188885af1928315620008e2577f543ba50a5eec5e6178218e364b1d0f396157b3c8fa278522c2cb7fd99407d47493620008c0575b50620008b38160045462001fd0565b600455604051908152a280f35b620008da90833d8511620005975762000586818362001e0a565b5038620008a4565b6040513d87823e3d90fd5b60405162461bcd60e51b81526004810183905260116024820152704d757374206465706f736974204c494e4b60781b6044820152606490fd5b5080fd5b503462000286578060031936011262000286576020600554604051908152f35b50346200028657806003193601126200028657602060405166038d7ea4c680008152f35b50346200028657806003193601126200028657546040516001600160a01b039091168152602090f35b503462000286576020366003190112620002865780620009b662001da6565b620009c062001f77565b6001600160a01b0316620009de620009d88262002610565b62002750565b803b1562000a2b57818091600460405180948193630ff352f560e01b83525af1801562000a205762000a0d5750f35b62000a189062001dc2565b620002865780f35b6040513d84823e3d90fd5b50fd5b50346200028657602036600319011262000286578062000a4d62001da6565b62000a5762001f77565b6001600160a01b031662000a6f620009d88262002610565b803b1562000a2b57818091600460405180948193632b9b55b360e01b83525af1801562000a205762000a0d5750f35b503462000286576020366003190112620002865760043562000abf62001f77565b60328110158062000b47575b1562000b0b5760407fa3548295fa266701fb2455011980392d0693eeff50c36c961fd1e6a8a840342991600254908060025582519182526020820152a180f35b60405162461bcd60e51b8152602060048201526014602482015273496e76616c69642074726561737572792066656560601b6044820152606490fd5b506103e881111562000acb565b5034620002865780600319360112620002865762000b7162001f77565b600080546001600160a01b0319811682556001600160a01b03167f8be0079c531659141344cd1fd0a4f28419497f9722a3daafe3b4186f6b6457e08280a380f35b503462000286576060366003190112620002865762000bd062001da6565b60243560443562000be062001f77565b6001600160a01b0392831692849062000bfd620009d88662002610565b62000c0d600354851115620026b6565b62000c1d60045484111562002703565b8262000c94575b5050816040917f239a845a997f2400322283032d0cfa9048b0be3cc3c641c6792d4cc7dd4f3d659362000c60575b82519182526020820152a280f35b62000c7d86808080868a5af162000c7662002034565b5062002069565b62000c8b8260035462002026565b60035562000c52565b60209060446040959395518096819363a9059cbb60e01b83528960048401528760248401527f0000000000000000000000000000000000000000000000000000000000000000165af1918215620008e2577f239a845a997f2400322283032d0cfa9048b0be3cc3c641c6792d4cc7dd4f3d659360409362000d2d575b5062000d1f8160045462002026565b600455918591935062000c24565b62000d489060203d8111620005975762000586818362001e0a565b503862000d10565b5034620002865780600319360112620002865760206040517f00000000000000000000000000000000000000000000000000000000000000008152f35b5034620002865760208060031936011262000926576004359062000db062001f77565b60055480831162000e8a579062000dd38362000e3093620003c182151562002669565b600555835460405163a9059cbb60e01b81526001600160a01b039182166004820152602481018590527f00000000000000000000000000000000000000000000000000000000000000009091169390928290849081906044820190565b038188885af1928315620008e2577feaff4b37086828766ad3268786972c0cd24259d4c87a80f9d3963a3c3d999b0d9362000e705750604051908152a280f35b6200058f90833d8511620005975762000586818362001e0a565b60405162461bcd60e51b815260048101839052601b60248201527f496e73756666696369656e74206665657320636f6c6c656374656400000000006044820152606490fd5b503462000286578060031936011262000286576200078b62000ef0620027a8565b60405191829160208352602083019062001f02565b503462000286578060031936011262000286576040517f00000000000000000000000000000000000000000000000000000000000000006001600160a01b03168152602090f35b503462000286578060031936011262000286576020600354604051908152f35b50346200028657604036600319011262000286576004356024918235908183111580620010af575b156200107b5762000fa6838362002026565b9260018401809411620010685762000fbe8462002959565b9362000fce604051958662001e0a565b80855262000fdf601f199162002959565b01906020913683870137805b848111156200100457604051806200078b888262001e97565b6200100f8162001f29565b9054906200101e848462002026565b918851831015620010555760039190911b1c6001600160a01b031660059190911b87018401526200104f9062002600565b62000feb565b634e487b7160e01b875260326004528987fd5b634e487b7160e01b825260116004528482fd5b60405162461bcd60e51b815260206004820152600d818601526c496e76616c69642072616e676560981b6044820152606490fd5b50600154821062000f94565b503462000286576020366003190112620002865780620010da62001da6565b620010e462001f77565b6001600160a01b0316620010fc620009d88262002610565b803b1562000a2b5781906004604051809481936310660b1160e01b83525af1801562000a20576200112b575080f35b620011369062001dc2565b80f35b503462000286578060031936011262000286576040517f00000000000000000000000000000000000000000000000000000000000000006001600160a01b03168152602090f35b5034620002865760a036600319011262000286576200119e62001da6565b9060243567ffffffffffffffff81116200092657620011c290369060040162001e4a565b60443567ffffffffffffffff811162001c3857620011e590369060040162001e4a565b90604051604081527f362b3bb25cf9360818f5a989fc39de997b4ee938e40a3457fecb360c6bcdf5c56200121d604083018462001f02565b6001600160a01b038716602084015233929081900390a242608435111562001be55760008051602062005b92833981519152606060405160208152600f60208201526e5265736f6c7574696f6e2074696d6560881b6040820152a16001600160a01b0384161562001bab5760008051602062005b92833981519152606060405160208152601260208201527150726963652066656564206164647265737360701b6040820152a180511562001b705760008051602062005b92833981519152606060405160208152600a6020820152694173736574206e616d6560b01b6040820152a181511562001b355760008051602062005b92833981519152606060405160208152600a60208201526910985cd948185cdcd95d60b21b6040820152a16064351562001ae45760008051602062005b92833981519152606060405160208152600c60208201526b54617267657420707269636560a01b6040820152a1604051633fabe5a360e21b815260a0816004816001600160a01b0389165afa908162001a90575b506200142857604080516001600160a01b0386168152602081018590527fe7bf7729645dc854ff8e6fc665dde27028918ed9746106f5a14025563167b8a39190a160405162461bcd60e51b815260206004820152601c60248201527f50726963652066656564206973206e6f742061636365737369626c65000000006044820152606490fd5b90927fe7bf7729645dc854ff8e6fc665dde27028918ed9746106f5a14025563167b8a36040805160018060a01b038416815260016020820152a160035466038d7ea4c68000600454917fd8b7495bb340db5c2b1457df0bdd1aff779224fdc65d8c5dadf8da70463115b360408051838152856020820152a11062001a355767016345785d8a00009060008051602062005b92833981519152606060405160208152600b60208201526a4554482062616c616e636560a81b6040820152a110620019e05760008051602062005b92833981519152606060405160208152600c60208201526b4c494e4b2062616c616e636560a01b6040820152a16040517f9543ef20eb33053ce3a2cb546916912405c9f3cb53b5d8212fa7ce661ff5c8628480a18061321f81011067ffffffffffffffff61321f83011117620019cc5761321f62002973823980620015a46200158d6101408061321f85015261321f8401018662001f02565b61321f83018103602061321f850101528762001f02565b60643561321f8301604081019190915260843560608201527f00000000000000000000000000000000000000000000000000000000000000006001600160a01b03908116608083015285811660a08301523060c08301527f00000000000000000000000000000000000000000000000000000000000000001660e08201527f00000000000000000000000000000000000000000000000000000000000000006101008201527f000000000000000000000000000000000000000000000000000000000000000061012090910152039084f0928315620019c05767016345785d8a0000600454106200196d5766038d7ea4c68000600354106200191c5760405163a9059cbb60e01b81526001600160a01b03858116600483015267016345785d8a000060248301526020908290604490829086907f0000000000000000000000000000000000000000000000000000000000000000165af1801562000a2057620018f8575b5060045467016345785d89ffff198101908111620018e457600455620017498180808066038d7ea4c680006001600160a01b038a165af162000c7662002034565b6003548066038d7ea4c67fff19810111620018e45766038d7ea4c67fff19016003556040805166038d7ea4c68000815267016345785d8a000060208201526001600160a01b038616917f239a845a997f2400322283032d0cfa9048b0be3cc3c641c6792d4cc7dd4f3d6591a2620017c96001600160a01b038516620020ac565b6040516001600160a01b03851681527f7bf96d77a3a17aabc161c98a0becd8187dc2a4d663c952f8e777091e2412e7f890602090a16001549068010000000000000000821015620018d057506020946200182e82600162001871940160015562001f29565b81546001600160a01b0388811660039390931b92831b921b191617905560405160a08082529094620018639186019062001f02565b908482038786015262001f02565b606435604084015260843560608401526001600160a01b0391821660808401523392918416917f713e53071fdca8cff37e12362baf044728d7f9660d11dd65a06ba5e688af553a9181900390a36040516001600160a01b039091168152f35b634e487b7160e01b81526041600452602490fd5b634e487b7160e01b82526011600452602482fd5b620019149060203d602011620005975762000586818362001e0a565b503862001708565b60405162461bcd60e51b8152602060048201526024808201527f496e73756666696369656e74204554482062616c616e636520666f722066756e60448201526364696e6760e01b6064820152608490fd5b60405162461bcd60e51b815260206004820152602560248201527f496e73756666696369656e74204c494e4b2062616c616e636520666f722066756044820152646e64696e6760d81b6064820152608490fd5b604051903d90823e3d90fd5b634e487b7160e01b84526041600452602484fd5b60405162461bcd60e51b815260206004820152602760248201527f466163746f7279206e65656473206d6f7265204c494e4b2066756e64696e67206044820152663337b9102b292360c91b6064820152608490fd5b60405162461bcd60e51b815260206004820152602d60248201527f466163746f7279206e65656473206d6f7265204554482066756e64696e67206660448201526c37b91030baba37b6b0ba34b7b760991b6064820152608490fd5b60a0813d60a01162001adb575b8162001aac60a0938362001e0a565b8101031262001ad75760808162001ac762001acf936200200e565b50016200200e565b5038620013a2565b8480fd5b3d915062001a9d565b60405162461bcd60e51b815260206004820152602360248201527f546172676574207072696365206d75737420626520677265617465722074686160448201526206e20360ec1b6064820152608490fd5b60405162461bcd60e51b815260206004820152601360248201527210985cd948185cdcd95d081c995c5d5a5c9959606a1b6044820152606490fd5b60405162461bcd60e51b8152602060048201526013602482015272105cdcd95d081b985b59481c995c5d5a5c9959606a1b6044820152606490fd5b60405162461bcd60e51b8152602060048201526012602482015271125b9d985b1a59081c1c9a58d9481999595960721b6044820152606490fd5b60405162461bcd60e51b815260206004820152602560248201527f5265736f6c7574696f6e2074696d65206d75737420626520696e207468652066604482015264757475726560d81b6064820152608490fd5b8280fd5b5034620002865780600319360112620002865760206040516207a1208152f35b503462000286578060031936011262000286576020600154604051908152f35b50346200028657806003193601126200028657602060405167016345785d8a00008152f35b5034620002865760203660031901126200028657602062001ccb62001cc562001da6565b62002610565b6040519015158152f35b50346200028657806003193601126200028657602060405160328152f35b503462000286578060031936011262000286576040517f00000000000000000000000000000000000000000000000000000000000000006001600160a01b03168152602090f35b5034620002865780600319360112620002865760206040517f00000000000000000000000000000000000000000000000000000000000000008152f35b905034620009265781600319360112620009265760609060035460045460055491835260208301526040820152f35b600435906001600160a01b038216820362001dbd57565b600080fd5b67ffffffffffffffff811162001dd757604052565b634e487b7160e01b600052604160045260246000fd5b6020810190811067ffffffffffffffff82111762001dd757604052565b90601f8019910116810190811067ffffffffffffffff82111762001dd757604052565b67ffffffffffffffff811162001dd757601f01601f191660200190565b81601f8201121562001dbd5780359062001e648262001e2d565b9262001e74604051948562001e0a565b8284526020838301011162001dbd57816000926020809301838601378301015290565b6020908160408183019282815285518094520193019160005b82811062001ebf575050505090565b83516001600160a01b03168552938101939281019260010162001eb0565b60005b83811062001ef15750506000910152565b818101518382015260200162001ee0565b9060209162001f1d8151809281855285808601910162001edd565b601f01601f1916010190565b60015481101562001f615760016000527fb10e2d527612073b26eecdfd717e6a320cf44b4afac2b0732d9fcbe2b7fa0cf60190600090565b634e487b7160e01b600052603260045260246000fd5b6000546001600160a01b0316330362001f8c57565b606460405162461bcd60e51b815260206004820152602060248201527f4f776e61626c653a2063616c6c6572206973206e6f7420746865206f776e65726044820152fd5b9190820180921162001fde57565b634e487b7160e01b600052601160045260246000fd5b9081602091031262001dbd5751801515810362001dbd5790565b519069ffffffffffffffffffff8216820362001dbd57565b9190820391821162001fde57565b3d1562002064573d90620020488262001e2d565b9162002058604051938462001e0a565b82523d6000602084013e565b606090565b156200207157565b60405162461bcd60e51b8152602060048201526013602482015272115512081d1c985b9cd9995c8819985a5b1959606a1b6044820152606490fd5b60007f00000000000000000000000000000000000000000000000000000000000000006001600160a01b031615620025fc57670de0b6b3a764000060045410620025fc5760405167ffffffffffffffff92906060810184811182821017620019cc5760405260288152602081016040368237835b601481106200251857506031620021639262002174926040519485927050726564696374696f6e4d61726b65742d60781b60208501525180928585019062001edd565b810103601181018452018262001e0a565b60405193610140850190811185821017620019cc5760405283526040516200219c8162001ded565b828152602084015260018060a01b03811660408401526207a12060608401523060808401528160a0840152604051620021d58162001ded565b82815260c0840152604051620021eb8162001ded565b82815260e0840152604051620022018162001ded565b828152610100840152670de0b6b3a764000061012084015260405163095ea7b360e01b815260018060a01b037f0000000000000000000000000000000000000000000000000000000000000000166004820152670de0b6b3a764000060248201526020816044818660018060a01b037f0000000000000000000000000000000000000000000000000000000000000000165af180156200249b57620024f4575b506020604051808095633f678e1160e01b82528360048301526001600160601b0361012062002388620022e38451610140602488015261016487019062001f02565b620023706200235a620023088a8801519360231994858b83030160448c015262001f02565b60408801516001600160a01b0390811660648b0152606089015163ffffffff1660848b015260808901511660a48a015260a088015160ff1660c48a015260c0880151898203850160e48b015262001f02565b60e087015183898303016101048a015262001f02565b90610100860151908783030161012488015262001f02565b920151166101448301520381857f00000000000000000000000000000000000000000000000000000000000000006001600160a01b03165af180938394620024ba575b50620023d657505050565b600454670de0b6b3a763ffff198101908111620024a6576004556001600160a01b0381163b1562000926576040516323aa307d60e11b8152600481018490528281602481836001600160a01b0387165af180156200249b5762002465575b506001600160a01b0316907fb26108c1ad0439f6307bd10c7221723434b74674577900b976e458408b15502a9080a3565b91620024937fb26108c1ad0439f6307bd10c7221723434b74674577900b976e458408b15502a929362001dc2565b919062002434565b6040513d85823e3d90fd5b634e487b7160e01b83526011600452602483fd5b9093506020813d602011620024eb575b81620024d96020938362001e0a565b8101031262001c3857519238620023cb565b3d9150620024ca565b620025109060203d602011620005975762000586818362001e0a565b5038620022a1565b6001600160601b03198460601b16811a60ff8160041c16601080821015620025e857600184811b9385850460021486151715620025d457600f906f181899199a1a9b1b9c1cb0b131b232b360811b80951a62002575878b62002796565b531691821015620025c0578301809311620025ac57620025a69392916200259f911a918662002796565b5362002600565b62002120565b634e487b7160e01b88526011600452602488fd5b634e487b7160e01b89526032600452602489fd5b634e487b7160e01b8a52601160045260248afd5b634e487b7160e01b88526032600452602488fd5b5050565b600019811462001fde5760010190565b600180549160005b838110620026295750505050600090565b620026348162001f29565b905460039190911b1c6001600160a01b039081169083161462002662576200265c9062002600565b62002618565b5050905090565b156200267157565b60405162461bcd60e51b815260206004820152601d60248201527f416d6f756e74206d7573742062652067726561746572207468616e20300000006044820152606490fd5b15620026be57565b60405162461bcd60e51b815260206004820152601860248201527f496e73756666696369656e74204554482062616c616e636500000000000000006044820152606490fd5b156200270b57565b60405162461bcd60e51b815260206004820152601960248201527f496e73756666696369656e74204c494e4b2062616c616e6365000000000000006044820152606490fd5b156200275857565b60405162461bcd60e51b8152602060048201526016602482015275496e76616c6964206d61726b6574206164647265737360501b6044820152606490fd5b90815181101562001f61570160200190565b60025460648082069104816200280257620027c4915062002876565b620027ff602160405183620027e482955180926020808601910162001edd565b8101602560f81b602082015203600181018452018262001e0a565b90565b60226200281e62002817620027ff9362002876565b9362002876565b9260405193816200283a86935180926020808701910162001edd565b8201601760f91b60208201526200285c82518093602060218501910162001edd565b01602560f81b602182015203600281018452018262001e0a565b8015620029295780816000925b620029105750620028948262001e2d565b91620028a4604051938462001e0a565b80835281601f19620028b68362001e2d565b013660208601375b620028c857505090565b600019810190811162001fde578091600a916030838306810180911162001fde5760f81b6001600160f81b03191660001a9062002906908662002796565b53049081620028be565b90916200291f600a9162002600565b9291048062002883565b506040516040810181811067ffffffffffffffff82111762001dd75760405260018152600360fc1b602082015290565b67ffffffffffffffff811162001dd75760051b6020019056fe6101406040523462000750576200321f803803806200001e8162000755565b92833981019061014081830312620007505780516001600160401b0381116200075057826200004f9183016200077b565b602082015190926001600160401b0382116200075057620000729183016200077b565b6040820151926060830151916200008c60808501620007ed565b6200009a60a08601620007ed565b91620000a960c08701620007ed565b93620000b860e08801620007ed565b9561012061010089015198015198600160005533156200070b57600180546001600160a01b03199081163317909155600380549091166001600160a01b038a1617905542821115620006bc5780156200066b576001600160a01b038716156200062657604051936001600160401b036102008601908111908611176200051557610200850160405283855260208501526040840152606083015260006080830152600060a0830152600060c0830152600060e08301526000610100830152600061012083015260006101408301526000610160830152600061018083015260006101a083015260006101c083015260006101e083015280519060018060401b038211620005155760055490600182811c921680156200061b575b6020831014620004f45781601f849311620005c2575b50602090601f831160011462000537576000926200052b575b50508160011b916000199060031b1c1916176005555b60208101518051906001600160401b0382116200051557600654600181811c911680156200050a575b6020821014620004f457601f81116200048e575b50602090601f831160011462000419576101e0939291600091836200040d575b50508160011b916000199060031b1c1916176006555b604081015160075560608101516008556080810151151560095460ff61ff0060a0850151151560081b1692169061ffff1916171760095560c0810151600a5560e0810151600b55610100810151600c55610120810151600d55610140810151600e55610160810151600f5560018060a01b03610180820151166010549060ff60a01b6101a0840151151560a01b169160018060a81b03191617176010556101c08101516011550151151560ff80196012541691161760125560018060a01b031660805260018060a01b031660a05260c0523360018060a01b0319600454161760045560018060a01b031660e0526101005261012052604051612a1c90816200080382396080518181816106c60152818161083b01528181610c40015281816112dc0152611726015260a0518181816103d201528181610f8d01526120e2015260c05181818161066801526110ab015260e05181818161077b01526126a70152610100518181816119ef01526126090152610120518181816110f201526125e20152f35b01519050388062000274565b90600660005260206000209160005b601f19851681106200047557509183916001936101e09695601f198116106200045b575b505050811b016006556200028a565b015160001960f88460031b161c191690553880806200044c565b9192602060018192868501518155019401920162000428565b60066000527ff652222313e28459528d920b65115c16c04f3efc82aaedc97be59f3f377c0d3f601f840160051c810160208510620004ec575b601f830160051c82018110620004df57505062000254565b60008155600101620004c7565b5080620004c7565b634e487b7160e01b600052602260045260246000fd5b90607f169062000240565b634e487b7160e01b600052604160045260246000fd5b01519050388062000201565b600560009081527f036b6384b5eca791c62761152d0c79bb0604c104a5fb6f4eb0703f3154bb3db09350601f198516905b818110620005a957509084600195949392106200058f575b505050811b0160055562000217565b015160001960f88460031b161c1916905538808062000580565b9293602060018192878601518155019501930162000568565b90915060056000526020600020601f840160051c8101916020851062000610575b90601f859493920160051c01905b818110620006005750620001e8565b60008155849350600101620005f1565b9091508190620005e3565b91607f1691620001d2565b60405162461bcd60e51b815260206004820152601f60248201527f54726561737572792063616e6e6f74206265207a65726f2061646472657373006044820152606490fd5b60405162461bcd60e51b815260206004820152602360248201527f546172676574207072696365206d75737420626520677265617465722074686160448201526206e20360ec1b6064820152608490fd5b60405162461bcd60e51b815260206004820152602160248201527f5265736f6c7574696f6e2074696d65206d75737420626520696e2066757475726044820152606560f81b6064820152608490fd5b60405162461bcd60e51b815260206004820152601860248201527f43616e6e6f7420736574206f776e657220746f207a65726f00000000000000006044820152606490fd5b600080fd5b6040519190601f01601f191682016001600160401b038111838210176200051557604052565b919080601f84011215620007505782516001600160401b0381116200051557602090620007b1601f8201601f1916830162000755565b92818452828287010111620007505760005b818110620007d957508260009394955001015290565b8581018301518482018401528201620007c3565b51906001600160a01b0382168203620007505756fe60806040818152600480361015610030575b505050361561001f57600080fd5b61002b34601154611d5e565b601155005b600092833560e01c90816309c1ba2e146119d8575080630ff352f5146118b157806310660b111461181e5780631690fe54146116a85780631fe543e31461153257806322af00fa146114c457806323341a05146114255780632b9b55b31461135b57806333d608f11461133d57806335637bde1461130b57806343425e88146112c75780634585e33b146111f1578063475460fa146111955780634a68d2e91461116e5780634f11c60d1461111557806361728f39146110da57806361d027b3146110965780636694f1a51461106d57806367f082b0146110515780636e04ff0d14610fd857806372cf6e3414610fbc578063741bef1a14610f7857806379ba509714610ecc5780637b6e1f9a14610e945780638068aa6814610e3e57806380f5560514610d4e5780638a69614e14610b955780638da5cb5b14610b6c5780638ea9811714610ae35780639eccacf614610aba5780639ed9c74d146107aa578063a3e56fa814610766578063ad44721914610653578063b624010a1461061b578063b93dab0b146105fc578063c40edb4414610586578063c45a01551461055f578063de87b07d14610494578063eb91d37e146103ab578063f2fde38b146102b65763f71e3a520361001157346102b257826003193601126102b25780546001600160a01b03163303610270575061022c60ff60095416612807565b81601154801590811561023d578280f35b828092918192826011558290610267575b3390f11561025d578181808280f35b51903d90823e3d90fd5b506108fc61024e565b6020606492519162461bcd60e51b8352820152601760248201527f4f6e6c7920666163746f727920617574686f72697a65640000000000000000006044820152fd5b8280fd5b50346102b25760203660031901126102b2576102d0611af6565b6001546001600160a01b0390811692913384900361036f57169233841461032c575050600280546001600160a01b031916831790557fed8889f560326eb138920d842192f0eb3dd22b4f139c87a2c57538e05bae12788380a380f35b906020606492519162461bcd60e51b8352820152601760248201527f43616e6e6f74207472616e7366657220746f2073656c660000000000000000006044820152fd5b845162461bcd60e51b8152602081850152601660248201527527b7363c9031b0b63630b1363290313c9037bbb732b960511b6044820152606490fd5b508290346104905781600319360112610490578251633fabe5a360e21b81529160a08383817f00000000000000000000000000000000000000000000000000000000000000006001600160a01b03165afa92831561048457819361044f575b5082131561041c575060209151908152f35b606490602084519162461bcd60e51b8352820152600d60248201526c496e76616c696420707269636560981b6044820152fd5b61047191935060a03d811161047d575b6104698183611a44565b81019061208e565b5050509050918461040a565b503d61045f565b508351903d90823e3d90fd5b5080fd5b50823461055c578260031936011261055c576104ae611af6565b6001600160a01b03168082526014602052838220546024359390841015610529576080856104f56104e9878388888152601460205220611b5b565b90549060031b1c611a66565b5060018101549160ff600360028401549301549282519485528181161515602086015260081c161515908301526060820152f35b606490602086519162461bcd60e51b8352820152600d60248201526c092dcecc2d8d2c840d2dcc8caf609b1b6044820152fd5b80fd5b50346102b257826003193601126102b2575490516001600160a01b03909116815260209150f35b505034610490576020366003190112610490576020906105a4611af6565b9060ff6009541691826105ec575b826105d3575b50816105c7575b519015158152f35b600f54151591506105bf565b6010546001600160a01b039182169116149150836105b8565b60105460a01c60ff1692506105b2565b5050346104905781600319360112610490576020906013549051908152f35b5050346104905760203660031901126104905760209181906001600160a01b03610643611af6565b1681526014845220549051908152f35b508290346104905781600319360112610490577f00000000000000000000000000000000000000000000000000000000000000006001600160a01b038082163314908115610759575b5015610725576106b060ff60095416612807565b600e549182156106ed5750906106ea9183600e557f00000000000000000000000000000000000000000000000000000000000000006128e1565b80f35b606490602086519162461bcd60e51b83528201526012602482015271139bc81999595cc81d1bc818dbdb1b1958dd60721b6044820152fd5b835162461bcd60e51b8152602081840152600e60248201526d139bdd08185d5d1a1bdc9a5e995960921b6044820152606490fd5b905082541633148561069c565b505034610490578160031936011261049057517f00000000000000000000000000000000000000000000000000000000000000006001600160a01b03168152602090f35b50346102b257816003193601126102b257803591602491823580151591828203610ab6576107d6611d81565b6107e560ff6009541615611d12565b8515610a7457600854421015610a325783516323b872dd60e01b602082015233868201523060448201526064808201889052815267ffffffffffffffff919060a0810183811182821017610a2057865261085f907f0000000000000000000000000000000000000000000000000000000000000000611dd7565b6013549585519260a084019084821090821117610a0e578652338352602083019288845286810186815260608201908b825260808301918c83526801000000000000000096878c10156109fc5760018c016013556108bc8c611a66565b9590956109eb579060039493929160018060a01b039051166001600160601b0360a01b87541617865551600186015560028501915115159060ff61ff0084549251151560081b1692169061ffff191617179055519101553389526014602052858920918254938410156109da5750509061093b91600182018155611b5b565b81549060031b9086821b91600019901b19161790553386526015602052828620610966868254611d5e565b905561097485600b54611d5e565b600b55156109c65761098884600c54611d5e565b600c555b815193845260208401528201527fb2dea862933fda054de6f12d6e0b7affaff4ba9f6aa471c7532461410d6ba46d60603392a26001815580f35b6109d284600d54611d5e565b600d5561098c565b634e487b7160e01b8a526041905288fd5b634e487b7160e01b8f528e8852868ffd5b634e487b7160e01b8e5260418752858efd5b50634e487b7160e01b89526041825288fd5b634e487b7160e01b8a5260418352878afd5b606490601886602087519362461bcd60e51b85528401528201527f42657474696e6720706572696f642068617320656e64656400000000000000006044820152fd5b606490601d86602087519362461bcd60e51b85528401528201527f416d6f756e74206d7573742062652067726561746572207468616e20300000006044820152fd5b8680fd5b50503461049057816003193601126104905760035490516001600160a01b039091168152602090f35b50346102b25760203660031901126102b257610afd611af6565b6001546001600160a01b03939192919084163381141580610b5e575b610b3757505050166001600160601b0360a01b600354161760035580f35b60649350846003541691519263061db9c160e01b8452339084015260248301526044820152fd5b508460035416331415610b19565b50503461049057816003193601126104905760015490516001600160a01b039091168152602090f35b5091903461049057602090816003193601126102b257833591610bb6611d81565b610bc460ff60095416612895565b601354831015610d1857610bd783611a66565b5080546001600160a01b03163303610ce6576002810180549160ff8360081c16610cb157600301918254978815610c78575096610c64916101007f0408e6e0b73daf4c873106e95fd067260fbff8bf9d1b499cad563d4480d45bac97989961ff001916179055337f00000000000000000000000000000000000000000000000000000000000000006128e1565b549082519485528401523392a26001815580f35b855162461bcd60e51b815290810185905260136024820152724e6f207061796f757420617661696c61626c6560681b6044820152606490fd5b845162461bcd60e51b8152808901859052600f60248201526e105b1c9958591e4818db185a5b5959608a1b6044820152606490fd5b825162461bcd60e51b8152808701839052600c60248201526b139bdd081e5bdd5c8818995d60a21b6044820152606490fd5b8490606492519162461bcd60e51b83528201526011602482015270092dcecc2d8d2c840c4cae840d2dcc8caf607b1b6044820152fd5b82843461055c578060031936011261055c5750610d69611b73565b610d71611c5e565b9082600754600854600954600a54600b54600c54600d5491600e5493600f5495601054976011549960125460ff169b519e8f9e8f9e8f906102008083528201610db991611ab6565b908082039060200152610dcb91611ab6565b9d015260608d015260ff8116151560808d015260081c60ff16151560a08c015260c08b015260e08a0152610100890152610120880152610140870152610160860152600160a01b60019003811661018086015260a01c60ff1615156101a08501526101c084015215156101e08301520390f35b505034610490578060031936011261049057610e58611af6565b6001600160a01b0316825260146020528082208054602435939084101561055c5750602092610e8691611b5b565b91905490519160031b1c8152f35b5050346104905760203660031901126104905760209181906001600160a01b03610ebc611af6565b1681526015845220549051908152f35b5090346102b257826003193601126102b257600254916001600160a01b03918284163303610f3c575050600154916001600160601b0360a01b903382851617600155166002553391167f8be0079c531659141344cd1fd0a4f28419497f9722a3daafe3b4186f6b6457e08380a380f35b906020606492519162461bcd60e51b8352820152601660248201527526bab9ba10313290383937b837b9b2b21037bbb732b960511b6044820152fd5b505034610490578160031936011261049057517f00000000000000000000000000000000000000000000000000000000000000006001600160a01b03168152602090f35b5050346104905781600319360112610490576020905160018152f35b82843461055c5750610fe936611b11565b5050600854804210159081611043575b81611037575b611033908351904260208301528482015283815261101c81611a12565b835193849315158452806020850152830190611ab6565b0390f35b600b5415159150610fff565b60095460ff16159150610ff9565b5050346104905781600319360112610490576020905160038152f35b50503461049057816003193601126104905760105490516001600160a01b039091168152602090f35b505034610490578160031936011261049057517f00000000000000000000000000000000000000000000000000000000000000006001600160a01b03168152602090f35b505034610490578160031936011261049057602090517f00000000000000000000000000000000000000000000000000000000000000008152f35b5090826003193601126102b257341561113b578261113534601154611d5e565b60115580f35b906020606492519162461bcd60e51b8352820152600d60248201526c09aeae6e840e6cadcc8408aa89609b1b6044820152fd5b50503461049057816003193601126104905760209060ff60105460a01c1690519015158152f35b838234610490576020366003190112610490576111bc60018060a01b038254163314612931565b600160ff196012541617601255357f1e916386fdf1353c5211b7371daecbb479c65b8c7e5e038bbe8f850ace1622568280a280f35b50346102b2578161120136611b11565b90809491810103126112c357602083359301359182841015806112b6575b806112ab575b156112755750916060917f94dfd834b72383239e7df6c2c61fc3b41d3ab79e6f22c2b3f1a413347560028593611259611fc9565b6112638284611fbc565b9181519384526020840152820152a180f35b6020606492519162461bcd60e51b83528201526011602482015270155c1ad9595c081b9bdd081b9959591959607a1b6044820152fd5b50600b541515611225565b5060ff600954161561121f565b8380fd5b505034610490578160031936011261049057517f00000000000000000000000000000000000000000000000000000000000000006001600160a01b03168152602090f35b50503461049057806003193601126104905760209061133461132b611af6565b60243590612975565b90519015158152f35b50503461049057816003193601126104905760209051620186a08152f35b5090346102b257826003193601126102b25781546001600160a01b031633036113e25761138d60ff6009541615611d12565b600854421061139f57826106ea611fc9565b906020606492519162461bcd60e51b8352820152601f60248201527f4d61726b6574206e6f7420726561647920666f72207265736f6c7574696f6e006044820152fd5b906020606492519162461bcd60e51b8352820152601860248201527f4f6e6c7920666163746f72792063616e207265736f6c766500000000000000006044820152fd5b50503461049057816003193601126104905761147e9060075490600854600954600a54600b549060ff600c5493600d549561145e611b73565b9861148c61146a611c5e565b8a519c8d9c8d610140908181520190611ab6565b8c810360208e015290611ab6565b988a015260608901528181161515608089015260081c16151560a087015260c086015260e08501526101008401526101208301520390f35b50346102b25760203660031901126102b257359160135483101561055c57506114ee60a092611a66565b509060ff600180851b038354169260018101549260036002830154920154938151958652602086015282821615159085015260081c16151560608301526080820152f35b5091903461049057806003193601126104905760249267ffffffffffffffff9084358281116116a457366023820112156116a45780820135928311611692578260051b95845191602094611588868a0185611a44565b83528483018281998301019136831161168e5783879101915b83831061167e5750506003546001600160a01b03959250851690503381900361166457506115d360ff60095416612807565b601054926115e760ff8560a01c1615612849565b51156116535750506116286116237f51fc99bcdaba92289675dd6be8bd6122ee9019dbd2bf5e9ada4e252985c1a9229596975160135490612738565b611a66565b50546001600160a81b031990911690821617600160a01b176010819055600f5494519485521692a280f35b634e487b7160e01b87526032905285fd5b60449287519263073e64fd60e21b84523390840152820152fd5b82358152918101918791016115a1565b8880fd5b634e487b7160e01b8552604182528585fd5b8480fd5b5090346102b257826003193601126102b2576116c2611d81565b6116d060ff60095416612895565b60105460ff8160a01c16156117db576001600160a01b0316330361179857600f5491821561176157507f0408e6e0b73daf4c873106e95fd067260fbff8bf9d1b499cad563d4480d45bac9083600f5561174a83337f00000000000000000000000000000000000000000000000000000000000000006128e1565b805192600019845260208401523392a26001815580f35b6020606492519162461bcd60e51b835282015260126024820152714e6f20626f6e757320617661696c61626c6560701b6044820152fd5b906020606492519162461bcd60e51b8352820152601d60248201527f596f7520617265206e6f74207468652072616e646f6d2077696e6e65720000006044820152fd5b815162461bcd60e51b8152602081850152601e60248201527f52616e646f6d2077696e6e6572206e6f742073656c65637465642079657400006044820152606490fd5b5090346102b257826003193601126102b25761184460018060a01b038354163314612931565b61185260ff60095416612807565b61186460ff60105460a01c1615612849565b6013541561187557826106ea612742565b906020606492519162461bcd60e51b835282015260166024820152754e6f206265747320746f2073656c6563742066726f6d60501b6044820152fd5b5090346102b257826003193601126102b25781546001600160a01b0316330361198a5760ff6009541661195457600854620151808101809111611941574211156118fe57826106ea611fc9565b906020606492519162461bcd60e51b8352820152601f60248201527f546f6f206561726c7920666f7220656d657267656e6379207265736f6c7665006044820152fd5b634e487b7160e01b845260118352602484fd5b906020606492519162461bcd60e51b8352820152601060248201526f105b1c9958591e481c995cdbdb1d995960821b6044820152fd5b906020608492519162461bcd60e51b8352820152602260248201527f4f6e6c7920666163746f72792063616e20656d657267656e6379207265736f6c604482015261766560f01b6064820152fd5b8490346104905781600319360112610490576020907f00000000000000000000000000000000000000000000000000000000000000008152f35b6060810190811067ffffffffffffffff821117611a2e57604052565b634e487b7160e01b600052604160045260246000fd5b90601f8019910116810190811067ffffffffffffffff821117611a2e57604052565b601354811015611aa057601360005260021b7f66de8ffda797e3de9c05e8fc57b3bf0ec28a930d40b0d285d93c06501cf6a0900190600090565b634e487b7160e01b600052603260045260246000fd5b919082519283825260005b848110611ae2575050826000602080949584010152601f8019910116010190565b602081830181015184830182015201611ac1565b600435906001600160a01b0382168203611b0c57565b600080fd5b906020600319830112611b0c5760043567ffffffffffffffff92838211611b0c5780602383011215611b0c578160040135938411611b0c5760248483010111611b0c576024019190565b8054821015611aa05760005260206000200190600090565b60405190600060055490600182811c90808416938415611c54575b6020948584108114611c405783885287949392918115611c205750600114611bc1575b5050611bbf92500383611a44565b565b9093915060056000527f036b6384b5eca791c62761152d0c79bb0604c104a5fb6f4eb0703f3154bb3db0936000915b818310611c08575050611bbf93508201013880611bb1565b85548884018501529485019487945091830191611bf0565b915050611bbf94925060ff191682840152151560051b8201013880611bb1565b634e487b7160e01b85526022600452602485fd5b91607f1691611b8e565b60405190600060065490600182811c90808416938415611d08575b6020948584108114611c405783885287949392918115611c205750600114611ca9575050611bbf92500383611a44565b9093915060066000527ff652222313e28459528d920b65115c16c04f3efc82aaedc97be59f3f377c0d3f936000915b818310611cf0575050611bbf93508201013880611bb1565b85548884018501529485019487945091830191611cd8565b91607f1691611c79565b15611d1957565b60405162461bcd60e51b815260206004820152601760248201527f4d61726b657420616c7265616479207265736f6c7665640000000000000000006044820152606490fd5b91908201809211611d6b57565b634e487b7160e01b600052601160045260246000fd5b600260005414611d92576002600055565b60405162461bcd60e51b815260206004820152601f60248201527f5265656e7472616e637947756172643a207265656e7472616e742063616c6c006044820152606490fd5b60018060a01b031690604051604081019080821067ffffffffffffffff831117611a2e57611e49916040526020938482527f5361666545524332303a206c6f772d6c6576656c2063616c6c206661696c6564858301526000808587829751910182855af1611e43611edf565b91611f1f565b805191821591848315611ebb575b505050905015611e645750565b6084906040519062461bcd60e51b82526004820152602a60248201527f5361666545524332303a204552433230206f7065726174696f6e20646964206e6044820152691bdd081cdd58d8d9595960b21b6064820152fd5b9193818094500103126104905782015190811515820361055c575080388084611e57565b3d15611f1a573d9067ffffffffffffffff8211611a2e5760405191611f0e601f8201601f191660200184611a44565b82523d6000602084013e565b606090565b91929015611f815750815115611f33575090565b3b15611f3c5790565b60405162461bcd60e51b815260206004820152601d60248201527f416464726573733a2063616c6c20746f206e6f6e2d636f6e74726163740000006044820152606490fd5b825190915015611f945750805190602001fd5b60405162461bcd60e51b815260206004820152908190611fb8906024830190611ab6565b0390fd5b91908203918211611d6b57565b611fd46008546120d2565b80600a556001600754821161ff006009549160081b169061ffff19161717600955600b548060011b9080820460021490151715611d6b577fc467918c4a7bed3537d128ba86e494ce4d957e99fc68ecb4a8d5d23cbeebe3939160646060920480600e55600f556120426123ae565b60135461206a575b60ff60095460081c169060405191151582526020820152426040820152a1565b612072612576565b61204a565b519069ffffffffffffffffffff82168203611b0c57565b908160a0910312611b0c576120a281612077565b916020820151916040810151916120c0608060608401519301612077565b90565b6000198114611d6b5760010190565b60408051633fabe5a360e21b81527f00000000000000000000000000000000000000000000000000000000000000006001600160a01b031692909160049160a09081858581895afa9182156123a35760009283968491612378575b5060008413156123355761038483018084116123205787111561231557929582808211156123065761215e91611fbc565b9260005b600a8110806122f1575b156122e05769ffffffffffffffffffff80921680156122cb57600019019160008088519260209384810191639a6fc8f560e01b835260249088168183015281526121b581611a12565b51908d5afa906121c3611edf565b91806122c0575b6121df575b50506121da906120c3565b612162565b90816121f1928251830101910161208e565b509192505060008213156121cf57858111908682156122b05761221391611fbc565b915b8783106122a3575b50159081612296575b506122325738806121cf565b50505050611c2091929394505b1161224957505090565b906020608492519162461bcd60e51b8352820152602160248201527f4e6f20726563656e7420656e6f756768207072696365206461746120666f756e6044820152601960fa1b6064820152fd5b610e109150111538612226565b995090955085903861221d565b906122ba91611fbc565b91612215565b5084825110156121ca565b601188634e487b7160e01b6000525260246000fd5b50505050611c20919293945061223f565b5069ffffffffffffffffffff8216151561216c565b9061231091611fbc565b61215e565b505050935050505090565b601187634e487b7160e01b6000525260246000fd5b845162461bcd60e51b8152602081880181905260248201527f496e76616c6964206c61746573742070726963652066726f6d206f7261636c656044820152606490fd5b91935050612394919550823d841161047d576104698183611a44565b9793509391905092953861212d565b83513d6000823e3d90fd5b6009805460ff600891821c81169392841561256d57600c54945b1561256457600d54905b851591826124d0576123ea6123f391600e5490611fbc565b600f5490611fbc565b9260005b6013548110156124c65761240a81611a66565b509082600283015416838554891c161515901515146000146124b657600182015491868302838104881484151715611d6b57866124a05761249b938b612451920490611d5e565b60038201555b7fd35211b19cf414aebf3028d37c4f9c6748aa8989fdedb5bc693649e055e91b7f600360018060a01b038354169201546040908151908582526020820152a26120c3565b6123f7565b634e487b7160e01b600052601260045260246000fd5b816000600361249b940155612457565b5050505050509050565b5050505050905060005b60135481101561256157806124f161255c92611a66565b50600180910154600361250384611a66565b5001557fd35211b19cf414aebf3028d37c4f9c6748aa8989fdedb5bc693649e055e91b7f61253083611a66565b50546001600160a01b03169161254584611a66565b5001546040908151908582526020820152a26120c3565b6124da565b50565b600c54906123d2565b600d54946123c8565b60135415611bbf576040805167ffffffffffffffff9190602080820184811183821017611a2e57835260009384835283519263125fa26760e31b838501525115156024840152602483526125c983611a12565b83519060c08201908111828210176127245790829185527f00000000000000000000000000000000000000000000000000000000000000008152818101907f000000000000000000000000000000000000000000000000000000000000000082526126a2868201956003875260608301620186a08152608084016001815260a0850192835261ffff8a51998a978897634d8e1c2f60e11b89528a60048a01525160248901525160448801525116606486015263ffffffff809251166084860152511660a48401525160c060c484015260e4830190611ab6565b0381877f00000000000000000000000000000000000000000000000000000000000000006001600160a01b03165af18492816126f5575b506126ea5750505050611bbf612742565b601691845252812055565b9092508181813d831161271d575b61270d8183611a44565b810103126116a4575191386126d9565b503d612703565b634e487b7160e01b86526041600452602486fd5b81156124a0570690565b6013548015612561576000194301438111611d6b57600b549160405192602084019242845244604086015240606085015260808401528060a084015260a0835260c083019183831067ffffffffffffffff841117611a2e576127ad9361162393604052519020612738565b5054601080546001600160a81b0319166001600160a01b0392831617600160a01b1790819055600f546040519081529116907f51fc99bcdaba92289675dd6be8bd6122ee9019dbd2bf5e9ada4e252985c1a92290602090a2565b1561280e57565b60405162461bcd60e51b815260206004820152601360248201527213585c9ad95d081b9bdd081c995cdbdb1d9959606a1b6044820152606490fd5b1561285057565b60405162461bcd60e51b815260206004820152601e60248201527f52616e646f6d2077696e6e657220616c72656164792073656c656374656400006044820152606490fd5b1561289c57565b60405162461bcd60e51b815260206004820152601760248201527f4d61726b6574206e6f74207265736f6c766564207965740000000000000000006044820152606490fd5b60405163a9059cbb60e01b60208201526001600160a01b039092166024830152604480830193909352918152608081019167ffffffffffffffff831182841017611a2e57611bbf92604052611dd7565b1561293857565b60405162461bcd60e51b815260206004820152601560248201527413db9b1e48199858dd1bdc9e4818d85b8818d85b1b605a1b6044820152606490fd5b9060ff600954161580156129da575b6129d35761299190611a66565b5080546001600160a01b0392831692169190911490816129c0575b816129b5575090565b600391500154151590565b600281015460081c60ff161591506129ac565b5050600090565b5060135481101561298456fea264697066735822122039bd338bea31a0abfc331c115f1fb9b6b69e9a99190c6f4220844e1e0c85097164736f6c6343000813003389a3d2561c9173e7be14b8d08d64df52a14290b3f5e67a7a69b9426b01bdd709a264697066735822122023ebdc5596904fff3aab5a5ddd54da3b94a7e08308835b9393aadfb51ea5b1df64736f6c63430008130033",
  "linkReferences": {},
  "deployedLinkReferences": {}
}